:020000040800F2
:10000000A83D00201D730108B55A0108B75A010820
:10001000B95A0108BB5A0108BD5A01080000000086
:10002000000000000000000000000000BF5A0108AE
:10003000C15A010800000000C35A0108C55A01084E
:10004000ED760108F1760108F5760108CD5A010830
:10005000F9760108FD7601080177010805770108A6
:10006000097701080D770108117701081577010854
:10007000197701081D770108217701082577010804
:10008000297701082D7701083177010835770108B4
:10009000397701083D770108417701084577010864
:1000A000497701084D770108517701085577010814
:1000B00059770108E15A01085D7701086177010865
:1000C00065770108697701086D7701087177010884
:1000D00075770108797701087D7701088177010834
:1000E000115B0108D75A010885770108EB5A01080E
:1000F000F55A010800000000897701088D77010892
:1001000000000000000000009177010895770108C9
:10011000997701089D770108A17701080000000088
:10012000A577010870B5040000250026206808495D
:100130000840B0F1005F08D1606805002E0020681B
:1001400080F30888B047002001E05FF0FF3070BD09
:100150000000FE2F2DE9F04FD5B003F041F903F078
:1001600007F8DFF8E80C006850F00200DFF8DC1C4C
:100170000860DFF8D80C006810F0020000900098CA
:10018000C020249001202590012026900320279054
:100190000020ADF81E0000208DF81B0000208DF817
:1001A0001C0003F070FA03F08CFA03F0A8FADFF8F1
:1001B0009C0C006850F00400DFF8901C0860DFF829
:1001C0008C0C006810F00400009000984FF48050F0
:1001D000249001202590012026900320279024A917
:1001E000DFF82C0E03F046FB01224FF48051DFF8BC
:1001F000200E03F0E7FDDFF81C2E4FF40071DFF84E
:10020000180E03F04BFEDFF8100E03F069FE4FF4FA
:100210007A73020092B2DFF8001EDFF8000E03F0DE
:100220001BFFDFF8F40D03F05BFE4FF47A7302005E
:1002300092B2DFF8E41DDFF8E80D03F00DFFDFF800
:10024000D80D03F04DFE4FF47A73020092B2DFF83E
:10025000C81DDFF8D00D03F0FFFEDFF8CC0D0068FD
:1002600010F00C0F04D1DFF8C40D04F09DF922E06A
:10027000DFF8B40D006810F00C00042804D1DFF89A
:10028000B00D04F091F916E0DFF89C0D006810F055
:100290000C00082804D1DFF89C0D04F085F90AE071
:1002A000DFF8840D006810F00C000C2803D1DFF893
:1002B000880D04F079F9DFF8700D0068C00304D4EC
:1002C000DFF8780D04F070F908E0DFF85C0D0068E5
:1002D000C00303D5DFF82C0E04F066F905F0B2F97F
:1002E0000100DFF8240E04F05FF905F005FA0100C3
:1002F000DFF8180E04F058F905F014FA0100DFF8E1
:10030000100E04F051F905F020FA0100DFF8040E98
:1003100004F04AF905F010FB05F0DEFB05F07DFC6A
:1003200005F042FD8DF81D00C0B2002806D09DF8F2
:100330001D10DFF8E40D04F037F905E0DFF8DC0DFF
:1003400004F032F905F000FF05F058FF002804D052
:10035000DFF8CC0D04F028F914E0DFF8C80D04F044
:1003600023F9DFF8440E05F05DFF00280AD1DFF81D
:10037000380E826CDFF8300E406C010DDFF82C0E69
:1003800004F012F9DFF8281EDFF8280E06F016FA3E
:10039000002812D10022DFF8181EDFF81C0E07F02B
:1003A000CEFC002804D1DFF8140E04F0FDF808E0BC
:1003B000DFF80C0E04F0F8F803E0DFF8080E04F0A4
:1003C000F3F8002408F0E0FD09F08FF8DFF8F82DCD
:1003D0000021002009F05BF909F072FB09F05AFCDA
:1003E00009F06BFC09F00CFC09F02FFCDFF8DC0DC8
:1003F00009F0D3FDDFF8D80D09F011FE0021DFF878
:10040000D00D09F0D9FEDFF8CC0D09F008FEDFF8B9
:10041000C80D09F004FE4FF47A7003F013F8DFF80A
:10042000BC0D04F0C1F800208DF81A0064234FF4CD
:100430008052DFF8AC1DDFF8E40B03F08BFE8DF883
:100440001A009DF81A00002808D1DFF8D00B808D23
:10045000ADF81E0001208DF81B0018E09DF81A0071
:10046000032811D1DFF8B40B808DDFF8B01BC98DE4
:10047000401A401EADF81E00BDF81E00002806D030
:1004800001208DF81B0002E000208DF81B009DF874
:100490001B000128C7D19DF81C00012809D1DFF8F5
:1004A000403DBDF81E20BDF81E10DFF8240E04F0FC
:1004B0007BF8DFF82C5DBDF81E00ADF81800DFF802
:1004C000141E28000AF074FC002805D1DFF8080E7D
:1004D00004F06AF802F02BBEDFF8001E28000AF0D4
:1004E00067FC00280DD19DF81C00002804D10120D4
:1004F0008DF81C0002F01BBE00208DF81C0002F0DD
:1005000016BEDFF8DC1D28000AF052FC002807D1D7
:100510004FF4F871DFF8CC0D02F096FE02F007BE42
:10052000DFF8C41D28000AF043FC002803D10AF0BC
:1005300044FD02F0FCBDDFF8B41D28000AF038FCD1
:10054000002816D102F08BFF0100DFF8A40D04F0A3
:100550002BF802F086FF0100DFF8980D04F024F874
:1005600002F083FF0100DFF8900D04F01DF802F0A7
:10057000DEBDD4A128000AF01BFC002807D102F040
:1005800079FF02F07EFF02F083FF02F0D0BDDFF8BA
:100590006C1D28000AF00CFC00283ED100222CA97A
:1005A000DFF85C0D0AF02AFD00220CA9DFF8500DDF
:1005B0000BF042FB9DF8B20002909DF8B100019053
:1005C0009DF8B00000909DF832309DF831209DF8E4
:1005D0003310DFF88C0E03F0E7FF0CA92CA805F010
:1005E00091FC002814D19DF8B20002909DF8B10052
:1005F00001909DF8B00000909DF832309DF83120B8
:100600009DF83310DFF85C0E03F0CEFF02F08FBDD3
:10061000BAA003F0C9FF02F08ABD0822DFF8481E25
:1006200028000BF0A9FB002840F08E801FA81421A1
:100630000BF0CAFBDFF8340E0068099015F10806CC
:10064000BDF818001B28C2F27285B01C0BF0BFFB6E
:100650008DF82700701D0BF0BAFB8DF8250016F100
:1006600008000BF0B4FB8DF8260001208DF8240063
:1006700016F10B000BF0ABFB8DF87C0016F10E00B1
:100680000BF0A5FB8DF87D0016F111000BF09FFB20
:100690008DF87E00002022900020239000202090E2
:1006A00000208DF87F009DF82700642846D29DF831
:1006B0002500002842D09DF825000D283ED29DF847
:1006C000260000283AD09DF82600202836D29DF832
:1006D0007C00182832D29DF87D003C282ED29DF84F
:1006E0007E003C282AD2002209A9DFF8140C0BF066
:1006F000C8F900280CD100221FA9DFF8040C0BF068
:10070000A1F8002804D1DFF8680D03F04DFF03E0E5
:10071000DFF8600D03F048FF09A91FA805F083FB6F
:10072000002805D1DFF8500D03F03EFF02F0FFBCBA
:10073000DFF8940D03F038FF02F0F9BCDFF88C0D00
:1007400003F032FF02F0F3BCDFF8841D28000AF04A
:100750002FFB00280FD105F0F7FC002805D0DFF8AB
:10076000740D03F021FF02F0E2BCDFF86C0D03F022
:100770001BFF02F0DCBCDFF8641D28000AF018FB48
:10078000002820D10EAF38000BF025FB0DF1380802
:1007900040460BF077FB06000E99DFF8440D03F09E
:1007A00003FF3068029070680190B0680090F368B1
:1007B0003069421C706900F26C71DFF8280D03F09B
:1007C000F3FE02F0B4BCDFF8201D28000AF0F0FAB6
:1007D00000280AD1DFF8280B0AF041FF0100DFF8FA
:1007E0000C0D03F0E1FE02F0A2BCDFF8041D2800AE
:1007F0000AF0DEFA002833D1002600270020070087
:10080000202F0DD25A204DF6597100FB071006001B
:1008100032003900DFF8E80A0AF03EFF7F1CEFE7FC
:1008200000200700202F82F082843900DFF8D00AF0
:100830000AF045FF06005A204DF6597100FB0710DB
:10084000864205D03900DFF8AC0C03F0ADFE05E0C0
:1008500032003900DFF8A00C03F0A6FE7F1CE1E7B0
:100860000522DFF8981C28000BF086FA00282BD10F
:1008700001224FF48051DFF8980703F0A3FABDF886
:100880001800062809DA4FF47A730D22DFF8701C7D
:10089000DFF8900703F0E0FB0AE04FF47A73BDF84D
:1008A0001800821F92B2A91DDFF8780703F0D4FB6D
:1008B00000224FF48051DFF8580703F083FA02F06A
:1008C00036BC00BF64626700DFF8381C28000AF0FD
:1008D0006FFA002814D10BF032FC0E21DFF8280C3F
:1008E00003F062FE0921DFF8240C03F05DFE1B21FA
:1008F000DFF81C0C03F058FE02F019BC0D0A0000D2
:100900000522DFF8101C28000BF036FA002846D12B
:10091000002649A82C210BF057FA00220FA9DFF876
:10092000E0090AF06BFB002208A9DFF8D4090BF0FC
:1009300083F99DF8230010F5FA604E909DF8210090
:100940004D909DF822004C909DF83C004B909DF8F6
:100950003D004A909DF83E004990BDF818000728D8
:100960000CDBBDF81800801F0090AB1D002249A9C8
:10097000DFF8A40B0BF022FB060009E0002000903A
:100980000023002249A9DFF8900B0BF017FB0600AB
:100990003100DFF8840B0BF05AFB02F0C8BB0422D5
:1009A000DFF8781B28000BF0E7F9002828D1BDF804
:1009B00018000528C2F2BB83DFF8641B281D0AF06B
:1009C000F7F9002842F0B383DFF8580B0068DFF82E
:1009D000581B0840B0F1005F42F0A983DFF84C0BD0
:1009E00003F0E2FDDFF8480B0668DFF8380B076814
:1009F000DFF8300B006880F30888B04702F097BB3F
:100A0000DFF8301B28000AF0D3F900280CD1DFF8FA
:100A1000280BFFF787FB002842F18983DFF81C0BC6
:100A200003F0C2FD02F083BBDFF8141B28000AF0BC
:100A3000BFF9002827D100200D900BF0DDFB00202E
:100A40002990DFF8000B2A9001202B900DA929A8EE
:100A50000BF0A2FC00280ED00D99DFF8EC0A03F091
:100A6000A3FDDFF8E80A0068C00508D5DFF8E00A52
:100A700003F09AFD03E0DFF8DC0A03F095FD0BF0CC
:100A8000D3FB02F054BB0922DFF8CC1A28000BF08C
:100A900073F9002844D10026BDF818000B2806DBA6
:100AA00015F10A000BF093F9DFF8B01A08600BF0AB
:100AB000A3FBDFF8900A0600DFF8A40A864219D2E9
:100AC000DFF8980A02680023310002200BF050FB87
:100AD000002801D1361DEFE73100DFF8880A03F066
:100AE00063FDDFF8680A0068C00503D5DFF8600A17
:100AF00003F05AFDDFF8680A864206D3DFF85C0A85
:100B00000168DFF8640A03F04FFDDFF8500A00685F
:100B1000401CDFF8481A08600BF086FB02F007BBA8
:100B2000DFF8481A28000AF043F900281BD10026F4
:100B30000027DFF8100A0600DFF8340A03F034FD5E
:100B4000DFF81C0A864208D2306807003900DFF857
:100B5000240A03F029FD361DF2E7DFF81C0A03F032
:100B600023FD02F0E4BA0722DFF8101A28000BF088
:100B700003F9002859D100260BF05EFB1AA80BF0F0
:100B800018FDBDF81800072814D11D98C00308D51A
:100B9000DFF8CC29DFF8AC19DFF8E40903F004FD35
:100BA0003FE0DFF8BC29DFF89C19DFF8D80903F033
:100BB000FBFC36E0BDF81800092832DB287A312822
:100BC00017D11D9850F4803006001D98C00328D41A
:100BD00001201A9001201B901D961AA80BF069FCA9
:100BE000002803D0DFF8A00903F0DEFC0BF044FB83
:100BF00017E0287A302814D11D98C00311D50120A0
:100C00001A9000201B905FF480301D901AA80BF002
:100C100050FC002803D0DFF8740903F0C5FC0BF08A
:100C20002BFB0BF021FB02F082BADFF864192800DD
:100C30000AF0BEF800280BD100260CF011F80600CF
:100C400036B23100DFF84C0903F0AEFC02F06FBAA7
:100C5000DFF8441928000AF0ABF8002823D114A8C3
:100C60000021002206C0083860208DF851000022C3
:100C70002021DFF8280903F0A5F8012114A80CF0C1
:100C8000DDF9012114A80CF00FFA01222021DFF870
:100C90000C0903F097F89DF85010DFF8040903F0F1
:100CA00083FC02F044BADFF8FC1828000AF080F850
:100CB000002865D10026012100200CF078FA0600FA
:100CC000B6B23100DFF8E00803F06EFC012100202D
:100CD0000CF06DFA0600B6B23100DFF8D00803F070
:100CE00063FC022101200CF062FA0600B6B231006A
:100CF000DFF8BC0803F058FC022102200CF057FA80
:100D00000600B6B23100DFF8AC0803F04DFC02215A
:100D100003200CF04CFA0600B6B23100DFF8980858
:100D200003F042FC012104200CF041FA0600B6B2A7
:100D30003100DFF8880803F037FC012105200CF0B2
:100D400036FA0600B6B23100DFF8740803F02CFC66
:100D5000022106200CF02BFA0600B6B23100DFF8B3
:100D6000640803F021FC022107200CF020FA0600A1
:100D7000B6B23100DFF8500803F016FC02F0D7B924
:100D80000622DFF8481828000AF0F6FF00285FD195
:100D9000002600275FF00008BDF81800082808DBCF
:100DA000DFF82C38DFF82C28DFF82C18E81D0CF0C1
:100DB00097FBDFF81C080268DFF818080168DFF805
:100DC0001C0803F0F1FB02F03AFB0700DFF804080F
:100DD0000068C0B20CF09DF9052002F033FB0CF066
:100DE000CFF9052002F02EFB00200CF0C2FADFF84C
:100DF000E00700680CF0ABFA00200CF0CDFA002000
:100E00000CF080FA01200CF090FA01200CF0D9FAD5
:100E100001200CF0ECFA002104200CF00EFB002164
:100E200005200CF00AFB0CF018FB060002F007FB93
:100E30008046B8EB0701DFF8A80703F0B5FB3100E7
:100E4000DFF8A00703F0B0FB02F071B91C380240D4
:100E5000DFF89417280009F0ABFF002840F0F0807D
:100E60000026002701230322002100200CF004FBB0
:100E7000060030000CF050FBDFF8E41E0CF05CFBC9
:100E80005FF082410CF058FB0CF0D4FB0022DFF83D
:100E9000D43E0CF0F7FB0CF0C7FC070038000CF058
:100EA000C9FB02000B003100DFF8BC0E03F07CFB35
:100EB00001230322002101200CF0DEFA060030009D
:100EC0000CF02AFBDFF8981E0CF036FB5FF0824135
:100ED0000CF032FB0CF0AEFB0022DFF8883E0CF089
:100EE000D1FB0CF0A1FC070038000CF0A3FB0200C2
:100EF0000B003100DFF8800E03F056FB00230022C8
:100F0000012100200CF0B8FA060030000CF004FBC0
:100F1000DFF84C1E0CF010FB0CF08CFB0022DFF80D
:100F2000443E0CF0AFFB0CF07FFC070038000CF0E7
:100F300081FB02000B003100DFF8400E03F034FBB0
:100F400000230022012101200CF096FA0600300057
:100F50000CF0E2FADFF8081E0CF0EEFA0CF06AFB77
:100F60000022DFF8003E0CF08DFB0CF05DFC07006A
:100F700038000CF05FFB02000B003100DFF8000EC0
:100F800003F012FB00230022062100200CF074FA6B
:100F9000060030000CF0C0FADFF8C41D0CF0CCFAEB
:100FA0000CF048FB0022DFF8BC3D0CF06BFB0CF0B2
:100FB0003BFC070038000CF03DFB02000B00310049
:100FC000DFF8C40D03F0F0FA002300220621002010
:100FD0000CF052FA060030000CF09EFADFF8801D8B
:100FE0000CF0AAFA0CF026FB0022DFF8783D0CF09A
:100FF00049FB0CF019FC070038000CF01BFB020049
:101000000B003100DFF8840D03F0CEFA02F08FB848
:10101000000802408C710108641C0020E02A0020B6
:10102000202B0020602B002008380240D06A0108E5
:10103000E86A0108006B0108186B01087C6601086A
:10104000DFF80C1F280009F0B3FE00286CD15FF018
:1010500000080026002701230322002100200CF0B5
:101060000BFA804601230322002101200CF004FA30
:10107000060030000CF050FA814640460CF04CFA65
:10108000010048460CF058FADFF8081F0CF014FC79
:101090000700DFF8040F006839000CF079FC02D279
:1010A000DFF8F40E07603800DFF8F01E09680CF076
:1010B0006FFC02D2DFF8E40E0760DFF8DC0E006898
:1010C000DFF8D81E09680CF075FC0CF0B3FACDE916
:1010D0000401DFF8C80E00680CF0ACFACDE902019B
:1010E000DFF8B40E00680CF0A5FACDE90001380075
:1010F0000CF0A0FA02000B00DFF8100F03F054FA16
:1011000002F015B8F4620108306B01089C71010807
:101110009C6F0108B06F010838680108C46F0108AE
:10112000D86F0108AC710108DFF8041F280009F02E
:101130003FFE002856D1002601273A00D2B20121F5
:10114000002007F03EFF0600B6B23100DFF8E40EE3
:1011500003F02AFA3A00D2B20121012007F031FF50
:101160000600B6B23100DFF8D00E03F01DFA3A00E7
:10117000D2B20121022007F024FF0600B6B23100EE
:10118000DFF8B80E03F010FA3A00D2B202210320C1
:1011900007F017FF0600B6B23100DFF8A40E03F027
:1011A00003FA01F0C4BF00BF542A002018630108ED
:1011B000682D002018710108E4150020486B010813
:1011C000606B0108786B0108BC710108182C0020C5
:1011D000502C0020882C0020C02C00202C730108EB
:1011E000E40100200622DFF85C1E28000AF0C4FD9E
:1011F000002840F0878000265FF000095FF00008BB
:101200000027BDF81800082807DBDFF8003FDFF8EB
:10121000002FF149E81D0CF063F9DFF8F00E0268C9
:10122000DFF8EC0E0168ED4803F0BEF901224FF43F
:101230008071DA4802F0C6FD02F001F98046012310
:101240000022DFF8C80E0168DFF8C40E006807F05E
:1012500066FF060030000CF05FF9DFF8041B0CF0AD
:101260006BF90CF0E7F90022DFF8F83A0CF00AFA13
:101270000CF0DAFA814648460CF0DCF902000B006B
:101280003100DFF80C0F03F08FF902F0D8F80700F7
:10129000DFF8000F0068B04202D2DFF8F80E0660F7
:1012A000DFF8F40E0068864202D2DFF8EC0E06602A
:1012B000DFF8E00E0068DFF8E01E0968421AB7EBBD
:1012C0000801DFF8D80E03F06FF901F030BF00BF5E
:1012D000906B0108AC74010838730108447301086D
:1012E000B4740108345A0108BC740108C4740108BC
:1012F000EC6F01083C630108A86B0108CC7401087D
:10130000F82C0020DFF8981E280009F051FD002875
:1013100040F09480002600270123032201210020B1
:1013200007F0FDFE060030000CF0F6F8DFF8301A8A
:101330000CF002F95FF082410CF0FEF80CF07AF943
:101340000022DFF8203A0CF09DF90CF06DFA07004E
:1013500038000CF06FF902000B003100DFF8080ACA
:1013600003F022F9012303220121012007F0D7FE17
:10137000060030000CF0D0F8DFF8E4190CF0DCF8CF
:101380005FF082410CF0D8F80CF054F90022DFF83D
:10139000D4390CF077F90CF047FA070038000CF05C
:1013A00049F902000B003100DFF8F80D03F0FCF8FA
:1013B000002300220021062007F0B1FE06003000C5
:1013C0000CF0AAF8DFF898190CF0B6F80CF032F926
:1013D0000022DFF890390CF055F90CF025FA0700DF
:1013E00038000CF027F902000B003100DFF88C09FF
:1013F00003F0DAF8002300220121062007F08FFE17
:10140000060030000CF088F8DFF854190CF094F85E
:101410000CF010F90022DFF84C390CF033F90CF025
:1014200003FA070038000CF005F902000B00310048
:10143000DFF84C0903F0B8F801F079BE0622DFF8B6
:10144000181F28000AF098FC00281FD1BDF81800CA
:10145000082813DAFF2008F019F801F068BE00BF71
:10146000B4610108DC61010850730108E4760108E9
:1014700000700108C06B0108D86B01080023EA1D49
:101480000021002008F0F8FA01F051BE0622DFF832
:10149000CC1E28000AF070FC002840F0A780BDF8A0
:1014A0001800082804DAFF2007F0F0FF01F03FBE23
:1014B00000200090DFF8E43E07220021002008F021
:1014C000AFF901F034BE00BF54680108CC710108C7
:1014D0005C73010870680108F06B0108D47401089E
:1014E000DC71010808610108DC7401088C680108DE
:1014F00068730108086C0108206C0108E474010895
:10150000EC710108EC740108606301088463010850
:101510009C660108F4740108E4110020FC740108C1
:10152000747301080000F01F0000FE2F386C0108E2
:101530000400F01F8073010800000208506C0108CD
:101540008C73010800000308BC660108183C0240C7
:10155000046201081470010898730108742D0020BA
:10156000000103082C620108686C0108A4730108DB
:10157000B0730108047501080C75010814750108A1
:10158000A863010854620108CC630108F0630108F4
:101590001C75010828700108247501080004024028
:1015A000BC7301082C750108806C0108986C010857
:1015B000B06C0108C86C0108E06C01083C700108BF
:1015C00050700108F86C0108A8680108347501081A
:1015D0007C2D0020782D00203C750108C46801088E
:1015E000FC7101080C720108C87301080622DFF8BB
:1015F000301E28000AF0C0FB00282CD100220FA9C1
:10160000DFF8200E09F0FAFC002208A9DFF8140E1A
:101610000AF012FB9DF83E0004909DF83D000390F7
:101620009DF83C0002909DF8220001909DF8210059
:1016300000909DF82330DFF8F02D4FF40071DFF8B3
:10164000EC0D02F02BFCDFF8E42D0021062008F061
:101650001EF801F06CBD0722DFF8D41D28000AF047
:101660008BFB002840F03D847FF077060920ADF821
:1016700028002220ADF816000320ADF814005FF01A
:101680002D0B5FF0070A60275FF02D085FF01E0941
:10169000002007F0FBFE00220FA9DFF8880D09F0FB
:1016A000ADFC002208A9DFF87C0D0AF0C5FADFF8CE
:1016B000B00E0068002840F0B98000200090DFF8EC
:1016C000A43E02220021002008F0AAF80023EEA286
:1016D0000421002008F0D0F936B230000BF012FFE0
:1016E000DFF8B0180BF028FF0BF0A4FFCDE90001E4
:1016F000DFF8D02E4FF40071DFF8300D02F0CEFB92
:101700000023DFF8282D0921002008F0B5F900207A
:101710000090DFF8B43E01220721002008F080F895
:1017200000200090DFF83C3E02220021012008F05A
:1017300077F80023EBA20421012008F09DF936B2CE
:1017400030000BF0DFFEDFF84C180BF0F5FE0BF06D
:1017500071FFCDE90001DFF86C2E4FF40071DFF866
:10176000CC0C02F09BFB0023DFF8C02C09210120E8
:1017700008F082F900200090DFF84C3E012207219A
:10178000012008F04DF800200090DFF8D83D02223B
:101790000021022008F044F80023EBA204210220DB
:1017A00008F06AF936B230000BF0ACFEDFF8E4174F
:1017B0000BF0C2FE0BF03EFFCDE90001DFF8042E76
:1017C0004FF40071DFF8640C02F068FB0023DFF8CF
:1017D0005C2C0921022008F04FF900200090DFF86E
:1017E000E83D01220721022008F01AF89DF83E008A
:1017F00004909DF83D0003909DF83C0002909DF8F8
:10180000220001909DF8210000909DF82330DFF820
:10181000182C4FF40071DFF8140C02F03FFBDFF8D6
:101820000C2C0021062007F032FF47E3DFF8300DD3
:101830000068012874D100200090DFF8C03E022229
:101840000021002007F0ECFF0023EEA2042100207D
:1018500008F012F9BDF92830EBA24FF40071DFF85F
:10186000CC0B02F01BFB0023DFF8C02B0A21002069
:1018700008F002F90023E5A20D21002008F0FCF891
:1018800000200090DFF8D03E02220021012007F066
:10189000C7FF0023DBA20421012008F0EDF8BDF909
:1018A00016000BF02FFEDFF8B41E0BF045FE0BF018
:1018B000C1FECDE90001DFF80C2D4FF40071DFF817
:1018C0006C0B02F0EBFA0023DFF8602B09210120FA
:1018D00008F0D2F80023DBA20E21012008F0CCF89A
:1018E0009DF83E0004909DF83D0003909DF83C005B
:1018F00002909DF8220001909DF8210000909DF833
:101900002330DFF8242B4FF40071DFF8200B02F0B6
:10191000C5FADFF8182B0021062007F0B8FECDE24B
:10192000DFF83C0C0068022878D100200090DFF836
:10193000883E02220021002007F072FF0023B1A29E
:101940000421002008F098F8BDF91430AEA24FF43D
:101950000071DFF8D80A02F0A1FA0023DFF8CC2AE0
:101960000B21002008F088F800200090DFF84C3EA2
:1019700001220721002007F053FF00200090DFF82C
:10198000CC3E02220021012007F04AFF00239DA245
:101990000421012008F070F80FFA8BFB58460BF079
:1019A000B1FDDFF8F0150BF0C7FD0BF043FECDE9FC
:1019B0000001DFF89C2E4FF40071DFF8700A02F08E
:1019C0006DFA0023DFF8642A0821012008F054F89A
:1019D0000023DBA20D21012008F04EF89DF83E0007
:1019E00004909DF83D0003909DF83C0002909DF806
:1019F000220001909DF8210000909DF82330DFF82F
:101A0000282A4FF40071DFF8240A02F047FADFF8C1
:101A10001C2A0021062007F03AFE4FE2DFF8400BB7
:101A20000068032840F09F8000200090DFF8B83E57
:101A300002220021002007F0F3FE002371A20421FE
:101A4000002008F019F80FFA8AFA5346C7A24FF49B
:101A50000071DFF8D80902F021FA0023DFF8CC2961
:101A60000821002008F008F80023C1A20C21002062
:101A700008F002F8BFA20F21002007F008FE0020A6
:101A80000090DFF8683E01E0313A000002220021B8
:101A9000012007F0C5FE00235AA20421012007F00F
:101AA000EBFF3FB23B00B1A24FF40071DFF87C09BD
:101AB00002F0F4F90023DFF874290821012007F06F
:101AC000DBFF0023DFF8282E0C21012007F0D4FFD4
:101AD0000023DFF8B82E0021022007F0CDFF0023FD
:101AE00048A201E0323A00000421022007F0C4FFBE
:101AF0000FFA88F843469DA24FF40071DFF82C09D5
:101B000002F0CCF90023DFF824290921022007F094
:101B1000B3FF00239BA20D21022007F0ADFF9DF82B
:101B20003E0004909DF83D0003909DF83C0002901B
:101B30009DF8220001909DF8210000909DF823302F
:101B4000DFF8E42802E000BF333A00004FF40071F0
:101B5000DFF8D80802F0A2F9DFF8D028002106202B
:101B600007F095FDAAE1DFF8F8090068042840F0C5
:101B7000118100200090DFF8843E02220021002025
:101B800007F04EFE002382A20421002007F074FF1C
:101B900000200090DFF8303A01220321002007F0F6
:101BA0003FFE0023E9A20821002007F065FF002086
:101BB0000090DFF89C3E01220021012007F030FE5A
:101BC00000200090DFF8903E01220121012007F063
:101BD00027FE00200090DFF8783E0122022101203C
:101BE00007F01EFE00200090DFF8703E0122002169
:101BF000022007F015FE36B230000BF083FCE549F9
:101C000006E000BF3A00000025336400255248007A
:101C10000BF092FC0BF00EFDCDE90001DFF89C2EDD
:101C20004FF40071DFF8040802F038F90023DFF800
:101C3000FC270221022007F01FFF00200090DFF8A0
:101C4000803E01E06D6D000001220021032007F0BD
:101C5000E7FD36B230000BF055FCCE490BF06CFCC2
:101C60000BF0E8FCCDE90001DFF8502E4FF40071D5
:101C7000DFF8B80702F012F90023DFF8B0270221DD
:101C8000032007F0F9FE00200090DFF8843E0122D7
:101C90000421012007F0C4FD36B230000BF032FC05
:101CA000BC490BF049FC0BF0C5FCCDE90001DFF8A5
:101CB0000C2E4FF40071DFF8740702F0EFF80023E8
:101CC000DFF868270A21012007F0D6FE00200090E7
:101CD000DFF8A03E01220421022007F0A1FD36B268
:101CE00030000BF00FFCAB490BF026FC0BF0A2FC14
:101CF000CDE90001DFF8C42D4FF40071DFF82C07A7
:101D000002F0CCF80023DFF824270A21022007F094
:101D1000B3FE00200090DFF8603E01220421032082
:101D200007F07EFD36B230000BF0ECFB99490BF06A
:101D300003FC0BF07FFCCDE90001DFF8802D01E012
:101D40006D2F73004FF40071DFF8E00602F0A6F883
:101D50000023DFF8D8260A21032007F08DFEADE02E
:101D600000FF7F470000F43FE0680108253464006D
:101D7000572F6D0032000000FC6801081869010847
:101D80003469010870706D007C620108DC6601082E
:101D900020283A00DFF8C8070068052840F08E8048
:101DA00000200090DFF8803E04220021002007F090
:101DB00037FD0023DFF8742E0821002007F05CFEB9
:101DC0000023DFF86C2E0021012007F055FE0020D3
:101DD0000090DFF8843E01220321012007F020FD5E
:101DE0000FFA89F919F105000A2190FBF1F3DFF8E8
:101DF0006C2E4FF40071DFF8340602F04FF8002328
:101E0000DFF828260021022007F036FE0FFA89F9B4
:101E100019F105000A2190FBF1F3DFF87C2E4FF455
:101E20000071DFF8080602F039F80023DFF8FC251E
:101E30000021032007F020FE0FFA89F919F10500AF
:101E40000A2190FBF1F3DFF8542E4FF40071DFF814
:101E5000DC0502F023F80023DFF8D025082101205B
:101E600007F00AFE0FFA89F919F105000A2190FB23
:101E7000F1F3DFF82C2E4FF40071DFF8B00502F01B
:101E80000DF80023DFF8A4250821022007F0F4FD57
:101E90000FFA89F919F105000A2190FBF1F3DFF837
:101EA000542E4FF40071DFF8840501F0F7FF002392
:101EB000DFF878250821032007F0DEFDDFF8A00613
:101EC0000068401CDFF898160860DFF89406006888
:101ED0000628C1F22C810020DFF88416086001F08A
:101EE00026B9DFF8141E280008F062FF002831D15F
:101EF000DFF8080E0078002804D10120DFF8FC1D6F
:101F0000087003E00020DFF8F41D0870DFF8EC0D26
:101F1000007800280CD000224FF40071DFF8540E36
:101F200001F050FFDFF8500E02F03EFB01F0FFB869
:101F300001224FF40071DFF83C0E01F043FFDFF89F
:101F40003C0E02F031FB01F0F2B800BF293A00006C
:101F500044750108DFF8281E280008F029FF002832
:101F600009D1DFF8200E0068416ADFF81C0E02F08C
:101F70001BFB01F0DCB8DFF8141E280008F018FF86
:101F800000280DD10BF08FFDDFF8040E02F00CFBE2
:101F900001F0CDB80000C842B8010020BC0100200B
:101FA000DFF8F01D280008F003FF002809D1012107
:101FB00000200BF096FDDFF8E00D02F0F5FA01F0DD
:101FC000B6B8DFF8701E280008F0F2FE002809D12C
:101FD000012101200BF085FDDFF85C0E02F0E4FA30
:101FE00001F0A5B8DFF8781E280008F0E1FE00280F
:101FF0000ED1012100200BF0A1FD01F0B9F8DFF8AE
:10200000640E02F0D1FA01F092B800BF3461010809
:10201000DFF8641E280008F0CBFE002814D10BF076
:10202000C0FDDFF8580E02F0BFFA01F080B800BF23
:10203000D4730108106D0108286D0108406D010876
:10204000586D01084C750108DFF8341E280008F0AF
:10205000AFFE00285ED100260027DFF8280E00889A
:102060008046DFF8240E008881461FFA89F94A4627
:102070001FFA88F84146DFF8140E02F095FADFF8EF
:10208000100E0BF0ABFF4FF47A71DFF8040E0BF07B
:10209000F3FF002841F04B80DFF8F40D0CF04FF80F
:1020A0000600B6B23100DFF8700E02F07DFAB6B26B
:1020B00030000BF031FA82461FFA88F840460BF0E8
:1020C0002BFA010050460BF075FCDFF8501E0BF0A8
:1020D000F3FB82461FFA89F91FFA88F8B9EB08006A
:1020E0000BF010FA010050460BF026FADFF8301E14
:1020F0000CF066FA070038000BF09CFA02000B00A7
:10210000DFF8200E02F050FA01F011B8842D002003
:10211000802D0020DFF8101E280008F049FE00285E
:1021200040F0BE800AA80021002206C0083800271F
:1021300002208DF828004FF47A70009001230AAA3B
:10214000390089B2DFF8540E0CF0D0FB0600C0B2A3
:10215000002829D0DFF8440E0DF010F80300F6B285
:102160003200BFB23900DFF8380E02F01DFAF6B2C5
:10217000022E07D1DFF8240E0CF08CFBDFF81C0ECA
:102180000CF060FA7F1C642001F05CF9D3E700BF1B
:1021900050690108882D0020C00100206C690108E9
:1021A000E0730108FC6601084FF47A700090012387
:1021B0000AAA390089B2DFF8E40D0CF097FB06009B
:1021C000C0B200280ED0DFF8D40D0CF0D7FF03000A
:1021D000F6B23200BFB23900DFF8C40D02F0E4F904
:1021E00000F0A5BF4FF47A70009007230AAA3900C7
:1021F00089B2DFF8A80D0CF005FC0600C0B200287B
:102200000ED0DFF8980D0CF0B9FF0300F6B23200E3
:10221000BFB23900DFF8300E02F0C6F900F087BF18
:102220009DF8280010F07F008DF828009DF8290007
:1022300010F07F008DF829009DF82A0010F03F0073
:102240008DF82A009DF82B0010F03F008DF82B0030
:102250009DF82C0010F007008DF82C009DF82D0043
:1022600010F01F008DF82D00DFF8E00D02F09CF952
:102270005FF000081FFA88F8B8F1070F0BD20AA820
:102280001FFA88F818F80010DFF8C40D02F08CF976
:1022900018F10108EEE7CDA002F086F900F047BF83
:1022A000DFF8B01D280008F083FD002840F0C28050
:1022B00003A80021002206C00838A02602208DF8BD
:1022C0000C004FF47A700090012303AA310089B208
:1022D000DFF8840D0CF00AFB0700C0B200281CD008
:1022E000DFF8740D0CF04AFF0300FFB23A00B6B2FB
:1022F0003100DFF8AC0C02F057F9FFB2022F07D122
:10230000DFF8540D0CF0C6FADFF84C0D0CF09AF91A
:102310004FF47A7001F096F8D3E74FF47A7000909A
:10232000012303AA310089B2DFF82C0D0CF0DEFA8C
:102330000700C0B2002813D0DFF81C0D0CF01EFF00
:102340000300FFB23A00B6B23100DFF8540C02F0DD
:102350002BF900F0ECBE00BF547501085C75010854
:102360004FF47A700090072303AA310089B2DFF896
:10237000E80C0CF047FB0700C0B2002810D0DFF8D3
:10238000D80C0CF0FBFE0300FFB23A00B6B23100ED
:10239000DFF8B40C02F008F900F0C9BE144E0108D1
:1023A0009DF80C0010F07F008DF80C009DF80D00DA
:1023B00010F07F008DF80D009DF80E0010F03F002A
:1023C0008DF80E009DF80F0010F03F008DF80F0003
:1023D0009DF8100010F007008DF810009DF8110016
:1023E00010F01F008DF81100DFF8600C02F0DCF82F
:1023F0005FF000081FFA88F8B8F1070F0BD203A8A6
:102400001FFA88F818F80010DFF8440C02F0CCF836
:1024100018F10108EEE76DA002F0C6F800F087BEE3
:1024200064750108F82C002048600108641C002035
:102430006C750108DFF8201D280008F0B9FC0028A1
:1024400040F05E81DFF8107C5FF0A008AA208DF8D4
:1024500014005FF01009DFF8040D0188DFF8000DAB
:1024600002F0A2F84FF47A7002904FF4807001905D
:10247000DFF8F40C00904B469BB2DFF8E00C0288CA
:10248000414689B238000CF08DFC0600F6B2002EF1
:1024900016D0F6B2022E05D138000CF0FBF9380048
:1024A0000CF0D0F838000CF069FE0300F6B23200F0
:1024B0001FFA88F84146DFF8540D02F075F822E063
:1024C000DFF8980C008810F58072DFF8900C018816
:1024D000DFF83C0D02F068F85FF0000A1FFA8AFA94
:1024E000BAF1FF0F0CD8DFF8800C1FFA8AFA1AF83D
:1024F0000010DFF8440D02F057F81AF1010AEDE779
:1025000032A002F051F84FF47A734FF496724146BC
:1025100089B238000CF082FD0600F6B2002E15D00C
:10252000F6B2022E05D138000CF0B4F938000CF0E8
:1025300089F838000CF022FE0300F6B232001FFAD0
:1025400088F84146DFF8F40C02F02EF8002080B243
:10255000FF2809D8DFF8101C80B24054401CF6E771
:102560008C2D0020D45D01084FF47A7002904FF456
:1025700080700190DFF8F00B00904B469BB2DFF8C3
:10258000DC0B0288414689B238000CF065FB06007E
:10259000F6B2002E1CD0F6B2022E05D138000CF097
:1025A00079F938000CF04EF838000CF0E7FD030024
:1025B000F6B232001FFA88F84146DFF8840C01F0C9
:1025C000F3FF11E0747501085C6501080D0A000055
:1025D000DFF8880B008810F58072DFF8800B018827
:1025E000DFF8600C01F0E0FF4FF47A734FF496725D
:1025F000414689B238000CF011FD0600F6B2002EFB
:1026000015D0F6B2022E05D138000CF043F938008F
:102610000CF018F838000CF0B1FD0300F6B23200EF
:102620001FFA88F84146DFF8140C01F0BDFF4FF4A3
:10263000807016905FF0000ADFF82CBB52461699A6
:1026400058460DF019F84FF47A7002904FF48070EC
:102650000190DFF8140B00904B469BB2DFF8FC0AA8
:102660000288414689B238000CF09CFB0600F6B2A5
:10267000002E16D0F6B2022E05D138000CF00AF961
:1026800038000BF0DFFF38000CF078FD0300F6B2E5
:1026900032001FFA88F84146DFF8700B01F084FF22
:1026A00022E0DFF8B80A008810F58072DFF8AC0A83
:1026B0000188DFF85C0B01F077FF5FF0000A1FFA7A
:1026C0008AFABAF1FF0F0CD8DFF89C0A1FFA8AFACF
:1026D0001AF80010DFF8600B01F066FF1AF1010A2A
:1026E000EDE7DCA001F060FFDFF8700A008810F56C
:1026F0008070DFF8681A088000F019BD145E0108C8
:10270000DFF8101B280008F053FB002828D145A84B
:10271000DFF8041B10220CF0F3FF3DA8202109F084
:1027200053FB6420009010233DAA45A9DFF82C0B31
:102730000DF01EF90600F6B2002E05D0DFF8200BD2
:1027400001F032FF00F0F3BC3DAA2021DFF8140BAA
:1027500001F02AFF00F0EBBC545E010800002041AC
:10276000DFF8041B280008F023FB002828D139A833
:10277000DFF8F81A10220CF0C3FF31A8202109F06D
:1027800023FB64200090102331AA39A9DFF8E00A66
:102790000DF0EEF80600F6B2002E05D0DFF8D40AF0
:1027A00001F002FF00F0C3BC31AA2021DFF8C80A03
:1027B00001F0FAFE00F0BBBC545F01087C65010823
:1027C000DFF8B81A280008F0F3FA00285ED1DFF825
:1027D0008C6A18A80021002206C0083816A800211B
:1027E000002206C0083801222021DFF8880501F008
:1027F000E9FADFF88C0A0078000150F008008DF843
:10280000600064200090012316AA18A930000DF082
:10281000AFF88DF81A009DF81A00002803D0DFF8F1
:10282000640A01F0C1FE64200090012316AA18A9D1
:1028300030000DF09DF88DF81A009DF81A00002860
:1028400008D0DFF8400A01F0AFFE0CE0945F010809
:102850007C7501089DF85820DFF8240A0178DFF81C
:10286000280A01F0A1FEDFF8180A0078401CDFF802
:10287000101A0870DFF8080A00780828C0F2578498
:102880000020DFF8FC19087000F051BCDFF8FC19DB
:10289000280008F08DFA002814D103F0AFFC0028BE
:1028A00005D0DFF8EC0901F07FFE00F040BCDFF856
:1028B000E40901F079FE4C21DFF8DC0901F074FE37
:1028C00000F035BCDFF8D419280008F071FA0028B0
:1028D00016D103F060FD00280CD1DFF8C40901F027
:1028E00063FE00F024BC00BFD45E0108145F010841
:1028F00084750108DFF8AC0901F056FE00F017BC42
:10290000DFF8A419280008F053FA002840D1012369
:102910004FF40072DFF8940900684FF4007101FB76
:1029200000F1DFF88C0903F0A2FC002828D1DFF8C1
:102930007C090168481CDFF874291060DFF874090D
:1029400001F032FEDFF87009406C4002DFF85C19DC
:102950000968884203D20020DFF850190860002679
:10296000B6F5007F08D2DFF84809315CDFF84C0982
:1029700001F01AFE761CF3E736A001F015FED6E34F
:10298000DFF83C0901F010FED1E300BF8C750108AF
:10299000DFF83019280008F00BFA002840F0D78043
:1029A000DFF824294021DFF8240901F077FA122208
:1029B000DFF81C19DFF81C0905F004FA0400E4B282
:1029C000002C08D0E4B22200DFF80419DFF808096F
:1029D00001F0EAFD5DE0DFF8FC08D0F80C12DFF84A
:1029E000F40805F0C7FE0400E4B2002C08D0E4B2FD
:1029F0002100DFF8E80801F0D7FD3AE0945E010815
:102A0000DFF8DC284FF40071DFF8D80801F046FA4F
:102A1000DFF8D00801F064FA0200DFF8CC38DFF804
:102A2000C418DFF8B00805F0F3FB0400E4B2002C92
:102A300004D1DFF8B4080068002811D1E4B2220004
:102A4000DFF88C18DFF8A40801F0AEFD11E000BF3C
:102A50003C6601080D0A00003C6501089C65010800
:102A6000DFF86C28DFF880080168DFF8840801F0DF
:102A70009BFDDFF8600805F08EFD0400E4B2002C39
:102A800007D0E4B22200DFF84818DFF8680801F048
:102A90008BFD0122DFF83818DFF8380805F092F9CD
:102AA0000400E4B2002C0DD0E4B22200DFF82018BC
:102AB000DFF8240801F078FD37E000BF94750108C5
:102AC000BC650108DFF830384FF40072DFF82C18CD
:102AD000DFF8000805F074FA0400E4B2002C04D119
:102AE000DFF814080068002814D1E4B22200DFF8EF
:102AF000E017DFF80C0801F057FDDFF8FC0700686D
:102B0000002812D1DFF8FC0701F04EFD0DE000BFF8
:102B1000DC650108DFF8E437DFF8B427DFF8D80711
:102B20000168DFF8E40701F03FFDDFF8A80705F0D2
:102B300032FD0400E4B2002C00F0F982E4B222007D
:102B4000DFF88C17DFF8AC0701F02EFDEFE204226E
:102B5000DFF8B817280009F00FF9002840F080804E
:102B6000BDF81800052809DADFF8A40701F01CFDFC
:102B7000DDE200BFFC6501081C660108281D00900D
:102B8000BDF81800031FDFF88C274021DFF840074D
:102B900001F084F9DFF83817DFF87C0701F004FD55
:102BA0000122DFF82C17DFF82C0705F00BF90400E1
:102BB000E4B2002C08D0E4B22200DFF81417DFF8EA
:102BC0005C0701F0F1FCB2E2DFF82C374FF4007241
:102BD000DFF82817DFF8FC0605F0F2F90400E4B28C
:102BE000002C08D0E4B22200DFF8E416DFF810076A
:102BF00001F0DAFC1EE0DFF800070068002804D1CD
:102C0000DFF81C0701F0D0FC14E00026B6B2B6F5E0
:102C1000007FD9D2DFF80C17DFF8E006B6B2305CDF
:102C200000F048FC761CF1E7B45901089C750108D6
:102C3000A4750108DFF89C0605F0ADFC0400E4B2C1
:102C4000002C00F07482E4B22200DFF88416DFF872
:102C5000A40601F0A9FC6AE25C660108AC750108F3
:102C60000222D0A1280009F087F8002840F0128144
:102C7000BDF81800042815DBA878202812D1E81C1C
:102C80000090BDF81800C31EDFF888264021DFF849
:102C90003C0601F003F91AE0B4750108BC7501089F
:102CA000C47501084021DFF8240605F0C8FC0400C3
:102CB000E4B2002C0BD0E4B22100DFF86C0601F086
:102CC00073FCD1A24021DFF8040601F0E7F8DFF839
:102CD000FC15DFF8580605F027FF0400E4B2002CCD
:102CE0000ED0E4B22200DFF8E415DFF8440601F06C
:102CF0005BFC1CE2CC750108EC730108A02D0020E0
:102D0000DFF8C815DFF82C0601F04EFCDFF82806C6
:102D10000090DFF82836DFF82826DFF82816DFF8DD
:102D2000280601F041FCDFF824060090DFF8203689
:102D3000DFF81826DFF81C16DFF80C0601F034FC6B
:102D4000DFF81416DFF8E40505F06DFF0400E4B2C7
:102D5000002C04D1DFF80006407A00281ED1DFF8ED
:102D6000CC0505F045FF0400E4B2002C40F07C8067
:102D7000DDE100BF000402401C720108647001081C
:102D8000F8730108182C002078700108D475010828
:102D9000706D0108DC7501082C720108DFF8B805B8
:102DA000C088C0F3451080B20190DFF8AC05C08840
:102DB00080B2C00A80B20090DFF89C05007910F064
:102DC0001F03DFF894058088C0F3431292B2DFF846
:102DD0008805808880B2400A80B200F2BC71DFF8BA
:102DE0007C0501F0E1FBDFF87005007A800601D573
:102DF000412000E02D20DFF86015097A490701D550
:102E0000532600E02D26DFF85015097A890701D5F1
:102E1000482300E02D23DFF84015097AC90701D5C2
:102E2000522200E02D22DFF83015097AC90605D5B7
:102E3000442104E004740108886D01082D210190EB
:102E40000096DFF81C0501F0AFFBDFF81825DFF86E
:102E500008050168DFF8100501F0A6FB70E700BF68
:102E6000E47501083C720108DFF86014DFF8FC0427
:102E700001F09AFB5BE100BFEC7501084C720108A0
:102E8000F4750108FA00F81FFE00F81FA06D010894
:102E9000B02900200322AFA1280008F06DFF002810
:102EA0004BD1BDF8180004281BDA4021DFF81C04C0
:102EB00005F0C5FB0400E4B2002C0BD0E4B2210005
:102EC000DFF8640401F070FB4FA24021DFF8FC033F
:102ED00000F0E4FFDFF8F413DFF8940401F064FB82
:102EE00025E1E81C0090BDF81800C31EDFF824247B
:102EF0004021DFF8D80300F0D1FFDFF8D00305F060
:102F000068FB0400E4B2002C10D0E4B22100DFF82A
:102F1000640401F049FB0AE15C7201080000A04270
:102F20000000F0418C700108FC750108DFF89C136B
:102F3000DFF83C0401F038FBF9E08AA1280007F033
:102F400037FF00281AD14021DFF8800305F077FB16
:102F50000400E4B2002C0BD0E4B22100DFF8C80377
:102F600001F022FB28A24021DFF8600300F096FF69
:102F7000D649DFF8FC0301F017FBD8E003227BA160
:102F8000280008F0F9FE00282DD1BDF8180004280B
:102F90000ADADFF8E40301F007FBC8E0A02B002009
:102FA000146401086C730000E81C0090BDF8180060
:102FB000C31ED84A4021C54800F070FFC34805F041
:102FC0006DFE0400E4B2002C07D0E4B22200BF4939
:102FD000DFF8A80301F0E8FAA9E0BC49DFF8A00394
:102FE00001F0E2FAA3E00622DFF89813280008F0C7
:102FF000C3FE002832D1BDF81800072806DADFF832
:10300000880301F0D1FA92E02F000000A81D009083
:10301000BDF81800831FBF4A4021AC4800F03EFFB6
:10302000AA4805F0C9FE0400E4B2002C06D0E4B2C0
:103030002200A649D54801F0B7FA78E0A349D44860
:1030400001F0B2FA73E000BF386401086C72010845
:10305000047601080C760108DC2B0020CD492800FD
:1030600007F0A6FE00282FD100200021CDE90001A5
:1030700000260822C849C94800680CF0B3FE0600C3
:10308000F6B2002E04D0F6B23100C54801F08CFA39
:10309000082200A9C14800680CF016FFDDE90023F2
:1030A000BE480168BF4801F07FFABB48D0E9002361
:1030B000501C53F10001B84AC2E90001B74800684A
:1030C0000830B649086032E0B749280007F070FEC2
:1030D00000282CD14FF40076B4480778DFF8D0826E
:1030E0003A00310040460CF0C7FA4FF40072B04984
:1030F000B0480CF077FE002803D0AF4801F054FA36
:1031000004E0AA480178AD4801F04EFAA7480078DB
:10311000401CA64908704FF40072A549A5480CF060
:10312000D3FEA34A4FF40071A54801F03DFA0020F8
:10313000ADF81E0000208DF81B004FF480560027CC
:10314000DFF880823A00310040460CF095FAFDF736
:103150006AB9000063642000147601089E2D0020E7
:103160007C7201087077640068260020726D200070
:1031700000B593B001A8142108F026FE06A834215A
:1031800008F022FE022006900120099010200A90EB
:1031900002200F90002010905FF4002011905FF447
:1031A0000000129006A801F011FA002801D000F0EA
:1031B00035F88548006850F080508349086082489F
:1031C000006810F08050009000988048006830F44B
:1031D000C05050F400607D4908607D480068C0061A
:1031E000FBD40F20019003200290002003900020C8
:1031F000049000200590012101A801F03BFF002868
:1032000001D000F00BF813B000BD00001C670108EE
:1032100088690108247601088C72010880B5402174
:103220006C4800F0F0FD6C4801F0BEF94FF47A7084
:1032300000F008F9F3E700001C7601085C6401085F
:103240003C670108A469010838B504000D002A0094
:103250002100624801F0A8F931BD000000290020DA
:10326000B86D0108786001082C7601089C7201088D
:1032700058290020D06D0108A860010834760108A3
:10328000A12D0020E86D0108006E01083C760108C0
:10329000D86F0108AC710108C069010810740108F9
:1032A000AC720108A070010844760108902D00203E
:1032B000642200205C670108542A00204C76010833
:1032C000BC720108547601081C740108A02A002071
:1032D000FC00002018180020DC690108B470010807
:1032E00060610108641E00206C2D0020F86901084F
:1032F0007C670108146A0108702D002064200020FA
:10330000306A01085C76010880640108647601086F
:103310009C6701086C760108CC7201084C6A0108B0
:10332000146001083C010020C8700108441A002004
:10333000BC67010828740108847601087C760108BE
:103340007476010834740108DC6701088C76010882
:103350009476010840740108182D0020686A01085D
:10336000DC720108212D0020EC720108A464010820
:103370009C760108DC700108C8640108186E010819
:10338000F0700108A4760108EC640108FC670108EC
:10339000846A01084C740108582D0020C4010020E3
:1033A000306E0108A4620108AC760108E00100203B
:1033B0006824002000000808486E0108FC7201081B
:1033C00004710108E401002024380240007000402C
:1033D000047000400004024058740108D8600108DD
:1033E00080B52F48006850F004002D4908602C4833
:1033F000006850F002002A490860032007F08AFDA7
:10340000012000F004F80CF09DFD002002BD10B575
:10341000040002F071F94FF47A71B0FBF1F007F09B
:10342000D0FD002221005FF0FF3007F088FD002072
:1034300010BD1C480068401C1A49086070471948B4
:103440000068704711B581B00024FFF7F8FF040051
:10345000FFF7F5FF001B01998842F9D313BD12480D
:10346000704712480068000C70471048006800055B
:10347000000D70470E48006850F001000C490860CC
:1034800070470B48006850F0020009490860704717
:103490000748006850F004000549086070470000C4
:1034A000003C0240942D002000020101002004E0B5
:1034B000042004E011B581B00C004FF6FF73012227
:1034C00001A9DFF8840300F002F8019816BD2DE988
:1034D000F84304000D0016001F005FF0000994F887
:1034E00039008146B9F1010F02D0B9F1220F56D14E
:1034F000002D02D0B6B2002E01D1012050E00020F4
:10350000E06394F83900222803D1322084F839008E
:1035100002E0122084F83900A684E684E08C0028BA
:103520002DD0E08C401EE084A068B0F5805F17D1FC
:103530003B0000228021200000F034F8002801D058
:1035400003202DE0A846B8F80000C005C00D216892
:1035500048602069002801D1AD1CDFE76D1CDDE764
:103560003B0000228021200000F01CF8002801D040
:10357000032015E02878216848606D1CCEE794F898
:103580003900322803D1222084F8390002E00120DA
:1035900084F83900002084F83800002000E0022080
:1035A000BDE8F2832DE9F04104000D0016001F0074
:1035B0005FF00008FFF743FF8046F6B2002E2FD1E0
:1035C000206800682840A8425AD017F1010FF7D0B0
:1035D000002F05D0FFF733FFB0EB08008742EFD292
:1035E0002068C06830F080002168C8602068C0682A
:1035F00030F020002168C8602068C06830F4807016
:103600002168C8602068406940084000216848611E
:10361000012084F83900002084F83800032030E0CD
:10362000206800682840A8422AD117F1010FF7D07E
:10363000002F05D0FFF703FFB0EB08008742EFD261
:103640002068C06830F080002168C8602068C068C9
:1036500030F020002168C8602068C06830F48070B5
:103660002168C860206840694008400021684861BE
:10367000012084F83900002084F83800032000E09D
:103680000020BDE8F08180B570486F4908605FF4A4
:10369000E1306D49486000206B49886000206A492C
:1036A000C8600020684908610C2067494861002013
:1036B0006549886100206449C861634800F03AFCAC
:1036C00001BD80B56248634908605FF4E13061493B
:1036D000486000205F49886000205E49C860002083
:1036E0005C4908610C205B494861002059498861A8
:1036F00000205849C861574800F01CFC01BD80B546
:103700005548564908604FF46140544948600020CC
:103710005249886000205149C86000204F49086123
:103720000C204E49486100204C49886100204B49DB
:10373000C8614A4800F0FEFB01BD10B586B0040028
:1037400020684249884227D14548006850F48040AB
:10375000434908604248006810F480400090009897
:103760004048006850F001003E4908603D4800684C
:1037700010F00100009000984FF4C060019002200A
:10378000029001200390032004900720059001A9D6
:10379000354800F06FF855E020682D49884226D161
:1037A0003248006850F40030304908602F48006803
:1037B00010F40030009000982A48006850F0010092
:1037C000284908602748006810F001000090009820
:1037D0000C2001900220029001200390032004900D
:1037E0000720059001A9204800F044F82AE020684D
:1037F0001949884226D11D48006850F480201B4991
:1038000008601A48006810F480200090009815485D
:10381000006850F00400134908601248006810F076
:103820000400009000984FF4406001900220029044
:1038300001200390032004900720059001A90C4863
:1038400000F018F806B010BDE02A00200038014052
:1038500000440040202B002000480040602B002046
:10386000203802401C380240000002402438024048
:10387000000802402DE9F04182B004000D0000264E
:1038800000275FF00008DFF8BC05844220D0DFF895
:10389000B80584421CD0DFF8B405844218D0DFF8A4
:1038A000B005844214D0DFF8AC05844210D0DFF8B4
:1038B000A80584420CD0DFF8A405844208D0DFF8C4
:1038C000A005844204D0CB21DFF89805FFF7BCFCAB
:1038D0002868000404D1CC21DFF88805FFF7B4FC88
:1038E0006868002831D0686801282ED068681128DF
:1038F0002BD06868022828D06868122825D068680C
:10390000DFF86415884220D06868DFF860158842C7
:103910001BD06868DFF85815884216D06868DFF851
:103920005415884211D06868DFF84C1588420CD0D5
:103930006868DFF84815884207D06868032804D013
:10394000CD21DFF82005FFF77FFCA86800280AD00A
:10395000A868012807D0A868022804D0CE21DFF883
:103960000405FFF771FC28680100F140002900F010
:103970004B8128680121B14008400700002F00F06A
:1039800041816868022802D06868122846D1DFF8B1
:10399000B404844220D0DFF8B00484421CD0DFF8A5
:1039A000AC04844218D0DFF8A804844214D0DFF8B5
:1039B000A404844210D0DFF8A00484420CD0DFF8C5
:1039C0009C04844208D0DFF89804844204D0DD21AE
:1039D000DFF89004FFF738FC2869102804D3DE21B3
:1039E000DFF88004FFF730FCF00814EB8000006A79
:1039F00080460F2016F00701C9B28900884038EAD6
:103A00000008286916F00701C9B28900884050EA09
:103A10000808F00814EB8000C0F820802068804679
:103A200003203100C9B24900884038EA00082879EB
:103A300010F003003100C9B24900884050EA08087C
:103A4000C4F800806868012808D06868022805D09A
:103A50006868112802D06868122830D1E868002808
:103A60000DD0E86801280AD0E868022807D0E86885
:103A7000032804D0F321DFF8EC03FFF7E5FBA0688F
:103A8000804603203100C9B24900884038EA000866
:103A9000E8683100C9B24900884050EA0808C4F813
:103AA0000880606880460120B04038EA00086868F5
:103AB000C0F30010B04050EA0808C4F80480E06881
:103AC000804603203100C9B24900884038EA000826
:103AD000A8683100C9B24900884050EA0808C4F813
:103AE0000C806868C00040F18D80DFF894030068A6
:103AF00050F00100DFF888130860DFF884030068E5
:103B000010F0010000900098DFF87803B10850F839
:103B1000210080460F2016F00301C9B289008840B9
:103B200038EA0008DFF81C03844201D1002024E0B9
:103B3000DFF81403844201D101201EE0DFF80C03FA
:103B4000844201D1022018E0DFF80403844201D14D
:103B5000032012E0DFF8FC02844201D104200CE0D3
:103B6000DFF8FC02844201D1052006E0DFF8E8021C
:103B7000844201D1062000E0072016F00301C9B2FB
:103B80008900884050EA0808DFF8F802B10840F8D8
:103B90002180DFF8F4020068804638EA0708686888
:103BA000C00301D557EA0808DFF8DC02C0F800803E
:103BB000DFF8D8020068804638EA070868688003A2
:103BC00001D557EA0808DFF8C402C0F80080DFF822
:103BD000C0020068804638EA07086868C00201D55C
:103BE00057EA0808AA48C0F80080AA48006880463A
:103BF00038EA07086868800201D557EA0808A5482E
:103C0000C0F80080761CAEE6BDE8F3812DE9F041F6
:103C100004000D00002600275FF000088948844258
:103C200019D08948844216D08848844213D08848E5
:103C3000844210D0874884420DD0874884420AD0FD
:103C40008648844207D08648844204D040F2491115
:103C50008448FFF7F9FA280404D14FF4A57181488C
:103C6000FFF7F2FA2800F040002800F092800120CF
:103C7000B04028400700002F00F089802068032111
:103C80003200D2B25200914088432060F00814EB19
:103C90008000F10814EB8101096A0F2216F0070376
:103CA000DBB29B009A4091430162A068032132007D
:103CB000D2B2520091408843A06060680121B140B7
:103CC00088436060E06803213200D2B25200914024
:103CD0008843E0606B48B10850F8210080460F200F
:103CE00016F00301C9B28900884010EA0808554857
:103CF000844201D100201EE05348844201D10120BA
:103D000019E05248844201D1022014E05048844214
:103D100001D103200FE04F48844201D104200AE082
:103D20004F48844201D1052005E04B48844201D12F
:103D3000062000E0072016F00301C9B28900884080
:103D4000804524D10F2016F00301C9B289008840B4
:103D500080464C48B10850F8210030EA0800494933
:103D6000B20841F8220048480068B8434649086054
:103D700046480068B8434549086045480068B8436C
:103D80004349086043480068B84342490860761CCC
:103D900068E7BDE8F08170B504000D00ADB2002DFC
:103DA00004D14FF4CC712F48FFF74EFA2069ADB221
:103DB000284202D00120060001E000200600300069
:103DC000C0B270BD70B504000D001600ADB2002D7C
:103DD00004D14FF4DB712348FFF736FAF6B2002E18
:103DE00007D0F6B2012E04D040F2B7111D48FFF7FC
:103DF0002BFAF6B2002E02D0ADB2A56102E0ADB250
:103E00002804A06170BD38B504000D00ADB2002DCE
:103E100004D14FF4E6711348FFF716FA6069ADB2AA
:103E20006840606131BD10B504001B480068A4B251
:103E3000204206D0A4B218480460200080B205F0E9
:103E400076FE10BD0000024000040240000802405F
:103E5000000C02400010024000180240001C02400A
:103E600000140240C8530108000011100000211086
:103E7000000031100000121000002210000032106B
:103E800020380240080001400004014004040140C1
:103E9000080401400C0401401404014008B400B5BA
:103EA00084B005AB03930023029311B900930193EF
:103EB00002E00090481E019003AB00A90748784437
:103EC0001A300CF041F8009911B1009A00211170DC
:103ED000002858BF029804B05DF808FB935000001A
:103EE00000F10103810704D010F8011B89B181079B
:103EF000FAD10268B2F10131914311F0803F04BF61
:103F000050F8042FF6E710F8011B11B110F8011B4F
:103F1000FBE7C01A704703681AB95A1E02600846C8
:103F20007047197811B94FF0FF307047591C016084
:103F30001878704710B50400002C01D101208AE0E8
:103F4000A06900282AD02068DFF8101388420FD01B
:103F50002068DFF80C1388420AD02068DFF80413C9
:103F6000884205D04FF48171DFF8FC02FFF76CF94D
:103F7000A069002827D0A069B0F5807F23D0A06970
:103F8000B0F5007F1FD0A069B0F5407F1BD040F294
:103F90000311DFF8D402FFF757F914E02068DFF8C7
:103FA000BC1288420FD02068DFF8B41288420AD0D1
:103FB0002068DFF8B012884205D040F20711DFF820
:103FC000A802FFF741F9A068002809D0A068B0F561
:103FD000805F05D040F20911DFF88C02FFF734F959
:103FE000E069002809D0E069B0F5004F05D04FF432
:103FF0008571DFF87402FFF727F994F8390000287B
:1040000005D1002084F838002000FFF796FB02203D
:1040100084F839002068C06830F400502168C86016
:10402000200000F094F92068006930F49040216885
:1040300008612068406930F02A00216848612068E2
:10404000C06850F400502168C8600020E06301207F
:1040500084F83900002010BD2DE9F84304000D005C
:1040600016001F005FF0000994F839008146B9F18D
:10407000010F02D0B9F1220F69D1002D02D0B6B2E2
:10408000002E01D1012063E094F83800012801D10D
:1040900002205DE0012084F838000020E06394F8FD
:1040A0003900222803D1322084F8390002E012209E
:1040B00084F83900A684E684E08C00282DD0E08CBA
:1040C000401EE084A068B0F5805F17D13B0000225D
:1040D0008021200000F0CAF8002801D0032037E03A
:1040E000A846B8F80000C005C00D216848602069E6
:1040F000002801D1AD1CDFE76D1CDDE73B0000228D
:104100008021200000F0B2F8002801D003201FE039
:104110002878216848606D1CCEE73B0000224021D2
:10412000200000F0A3F8002801D0032010E094F84C
:104130003900322803D1222084F8390002E001201E
:1041400084F83900002084F83800002000E00220C4
:10415000BDE8F2832DE9F84304000D0016001F00AE
:104160005FF0000994F839008146B9F1010F02D0DF
:10417000B9F1120F6ED1002D02D0B6B2002E01D1CE
:10418000012068E094F83800012801D1022062E0A3
:10419000012084F838000020E06394F839001228E8
:1041A00003D1322084F8390002E0222084F839005B
:1041B000A685E685E08D00283CD0E08D401EE08598
:1041C000A068B0F5805F1CD13B00002220212000B8
:1041D00000F04CF8002801D003203CE0A8462069FC
:1041E000002807D120684068C005C00DA8F800006D
:1041F000AD1CDFE720684068C0B2A8F800006D1C65
:10420000D8E73B0000222021200000F02FF80028F2
:1042100001D003201FE02069002804D120684068F5
:1042200028706D1CC6E72068406810F07F00287079
:104230006D1CBFE794F83900322803D1122084F8AE
:10424000390002E0012084F83900002084F83800A9
:10425000002000E00220BDE8F283000000380140A9
:1042600000440040004800409C5701082DE9F041FF
:1042700004000D0016001F005FF00008FFF7DFF8D4
:104280008046F6B2002E2FD1206800682840A84250
:104290005AD017F1010FF7D0002F05D0FFF7CFF854
:1042A000B0EB08008742EFD22068C06830F0800091
:1042B0002168C8602068C06830F020002168C860AC
:1042C0002068C06830F480702168C8602068406948
:1042D0004008400021684861012084F8390000202E
:1042E00084F83800032030E0206800682840A842A5
:1042F0002AD117F1010FF7D0002F05D0FFF79FF853
:10430000B0EB08008742EFD22068C06830F0800030
:104310002168C8602068C06830F020002168C8604B
:104320002068C06830F480702168C86020684069E7
:104330004008400021684861012084F839000020CD
:1043400084F83800032000E00020BDE8F081F8B5D3
:104350000400002560689149884204D340F23F710F
:104360008D48FEF771FFE068002808D0E068B0F5DE
:10437000005F04D04FF4E8618748FEF765FF2069CD
:1043800000280CD02069B0F5806F08D02069B0F506
:10439000C06F04D040F241717F48FEF755FF60695D
:1043A00030F00C00002802D16069002804D140F2EE
:1043B00042717948FEF748FF2068006930F44050A8
:1043C000E168084321680861A068216908436169C0
:1043D0000843E169084305002068C0687049084047
:1043E00028432168C8602068406930F44070A169A2
:1043F000084321684861E069B0F5004F65D1206845
:104400006849884230D101F0A0F9070001F09DF918
:10441000060001F09AF9192101FB07F162685200C8
:10442000B1FBF2F16422B1FBF2F1192202FB06F2B8
:1044300063685B00B2FBF3F21923584363685B00C7
:10444000B0FBF3F06423B0FBF3F0642303FB102014
:10445000000132306422B0FBF2F010F00F0050EA9D
:1044600001102168886095E001F05CF9070001F017
:1044700059F9060001F056F9192101FB07F16268AC
:104480005200B1FBF2F16422B1FBF2F1192202FBFE
:1044900006F263685B00B2FBF3F2192358436368CA
:1044A0005B00B0FBF3F06423B0FBF3F0642303FB89
:1044B0001020000132306422B0FBF2F010F00F0047
:1044C00050EA01102168886064E02068354988421C
:1044D00030D101F03AF9070001F037F9060001F098
:1044E00034F9192101FB07F162689200B1FBF2F186
:1044F0006422B1FBF2F1192202FB06F263689B0011
:10450000B2FBF3F21923584363689B00B0FBF3F04E
:104510006423B0FBF3F0642303FB1020000132306E
:104520006422B0FBF2F010F00F0050EA0110216895
:1045300088602FE001F0F6F8070001F0F3F80600BC
:1045400001F0F0F8192101FB07F162689200B1FB5C
:10455000F2F16422B1FBF2F1192202FB06F2636868
:104560009B00B2FBF3F21923584363689B00B0FB36
:10457000F3F06423B0FBF3F0642303FB102000018D
:1045800032306422B0FBF2F010F00F0050EA01105C
:1045900021688860F1BD00009C57010801093D00B9
:1045A000F369FFFF003801400EB400B582B003A9E3
:1045B0000091024600AB0121034878440A300BF019
:1045C000C3FC06BC5DF810FB9928010038B5040057
:1045D0000025002C05D140F21D11DFF8900AFEF7EE
:1045E00033FE2068002809D0207810F01F0F05D175
:1045F0004FF48F71DFF8740AFEF726FE2078C007AB
:1046000040F11881606800280BD06068012808D04C
:104610006068052805D04FF49271DFF8500AFEF764
:1046200013FEDFF8400A006810F00C0008280BD0D9
:10463000DFF8300A006810F00C000C2828D1DFF8F1
:10464000240A0068C00323D54FF48040B0FA80F0FC
:1046500050F02000C0B24009C0B2012803D1DFF8F9
:10466000000A006802E0DFF8080A00684FF48041A1
:10467000B1FA81F111F01F010200CA40D00740F1E8
:10468000D9806068002840F0D580012000F0E6BCA9
:10469000DFF8CC09006830F48030DFF8C419086016
:1046A000DFF8BC09006830F48020DFF8B419086036
:1046B000FEF7C5FE05004FF48040B0FA80F050F0E0
:1046C0002000C0B24009C0B2012803D1DFF8900930
:1046D000006802E0DFF8980900684FF48041B1FA01
:1046E00081F111F01F010200CA40D00709D5FEF781
:1046F000A6FE401B41F289318842DCD3032000F042
:10470000ADBC6068012808D1DFF85409006850F496
:104710008030DFF84C19086037E06068002810D15D
:10472000DFF83C09006830F48030DFF834190860A5
:10473000DFF82C09006830F48020DFF824190860C5
:1047400023E06068052810D1DFF81409006850F4F0
:104750008020DFF80C190860DFF80409006850F4C5
:104760008030DFF8FC1808600FE0DFF8F40800681C
:1047700030F48030DFF8E8180860DFF8E4080068FB
:1047800030F48020DFF8D81808606068002828D04E
:10479000FEF755FE05004FF48040B0FA80F050F06F
:1047A0002000C0B24009C0B2012803D1DFF8B00830
:1047B000006802E0DFF8B80800684FF48041B1FA01
:1047C00081F111F01F010200CA40D00732D4FEF778
:1047D00036FE401B41F289318842DCD3032000F0D1
:1047E0003DBCFEF72CFE05004FF48040B0FA80F08F
:1047F00050F02000C0B24009C0B2012803D1DFF858
:104800006008006802E0DFF8680800684FF4804143
:10481000B1FA81F111F01F010200CA40D00709D599
:10482000FEF70DFE401B41F289318842DCD30320A4
:1048300000F014BC2078800740F1CC80E0680028AC
:1048400008D0E068012805D040F26711DFF81C08A5
:10485000FEF7FAFC2069202805D34FF4B471DFF885
:104860000C08FEF7F1FCDFF8FC07006810F00C0004
:1048700004280BD0DFF8EC07006810F00C000C28BF
:1048800036D1DFF8E0070068C00331D45FF0804024
:10489000B0FA80F050F02000C0B24009C0B2012848
:1048A00003D1DFF8BC07006802E0DFF8C407006846
:1048B0005FF08041B1FA81F111F01F010200CA409E
:1048C000D00704D5E068012801D00120C6E3DFF855
:1048D000980700685FF47801B1FA81F130F4F8507C
:1048E000226912FA01F10843DFF87C17086071E0D1
:1048F000E06800283FD001205FF00041B1FA81F16B
:10490000DFF83C2D42F82100FEF799FD05005FF02D
:104910008040B0FA80F050F02000C0B24009C0B230
:10492000012803D1DFF83807006802E0DFF840070C
:1049300000685FF08041B1FA81F111F01F010200BF
:10494000CA40D00706D4FEF77AFD401B6528DED3A7
:10495000032083E3DFF8100700685FF47801B1FA01
:1049600081F130F4F850226912FA01F10843DFF8BE
:10497000F81608602EE000205FF00041B1FA81F1E6
:10498000DFF8BC2C42F82100FEF759FD05005FF06E
:104990008040B0FA80F050F02000C0B24009C0B2B0
:1049A000012803D1DFF8B806006802E0DFF8C0068E
:1049B00000685FF08041B1FA81F111F01F0102003F
:1049C000CA40D00706D5FEF73AFD401B6528DED366
:1049D000032043E32078C00640F12581A069002828
:1049E00008D0A069012805D04FF4D471DFF87C0607
:1049F000FEF72AFCE069FF2805D940F2A911DFF88B
:104A00006C06FEF721FC206A00281DD0206AB0F554
:104A1000005F19D0206AB0F5804F15D0206AB0F53C
:104A2000C04F11D0206AB0F5004F0DD0206AB0F50C
:104A3000204F09D0206AB0F5404F05D04FF4D57112
:104A4000DFF82806FEF700FCDFF81806006810F013
:104A50000C0F6DD15FF48000B0FA80F050F02000B0
:104A6000C0B24009C0B2012803D1DFF8F4050068E4
:104A700002E0DFF8FC0500685FF48001B1FA81F123
:104A800011F01F010200CA40D00704D5A069002818
:104A900001D10120E2E2DFF8D005006810F46040A7
:104AA000216A884220D2206A00F0E4FE002801D06A
:104AB0000120D3E2DFF8B005006830F46040216ADD
:104AC0000843DFF8A4150860DFF89C050068FF21A3
:104AD000B1FA81F10002000AE26912FA01F1084319
:104AE000DFF8841508601FE0DFF87C05006830F40B
:104AF0006040216A0843DFF870150860DFF8680538
:104B00000068FF21B1FA81F10002000AE26912FA9D
:104B100001F10843DFF850150860206A00F0AAFE92
:104B2000002801D0012099E20120FEF770FC7AE014
:104B3000A069002848D001205FF40001B1FA81F19A
:104B4000DFF8FC2A42F82100FEF779FC05005FF44B
:104B50008000B0FA80F050F02000C0B24009C0B22E
:104B6000012803D1DFF8F804006802E0DFF800054F
:104B700000685FF48001B1FA81F111F01F010200B9
:104B8000CA40D00706D4FEF75AFC401B6528DED386
:104B9000032063E2DFF8D004006830F46040216A4B
:104BA0000843DFF8C4140860DFF8BC040068FF2184
:104BB000B1FA81F10002000AE26912FA01F1084338
:104BC000DFF8A41408602EE000205FF40001B1FAC1
:104BD00081F1DFF86C2A42F82100FEF730FC050075
:104BE0005FF48000B0FA80F050F02000C0B24009BD
:104BF000C0B2012803D1DFF86804006802E0DFF8E2
:104C0000700400685FF48001B1FA81F111F01F01B6
:104C10000200CA40D00706D5FEF711FC401B6528EC
:104C2000DED303201AE22078000756D560690028F9
:104C300008D06069012805D040F20A21DFF82C0471
:104C4000FEF702FB6069002823D001205FF00041DD
:104C5000B1FA81F1DFF81C2B42F82100FEF7EFFBDF
:104C600005005FF08040B0FA80F0DFF804040068CF
:104C70005FF08041B1FA81F111F01F010200CA40DA
:104C8000D0072AD4FEF7DBFB401B6528E9D30320BD
:104C9000E4E100205FF00041B1FA81F1DFF8D42AAD
:104CA00042F82100FEF7CBFB05005FF08040B0FA30
:104CB00080F0DFF8BC0300685FF08041B1FA81F159
:104CC00011F01F010200CA40D00706D5FEF7B7FB5E
:104CD000401B6528E9D30320C0E12078400740F15C
:104CE000CE80A06800280BD0A068012808D0A0685A
:104CF000052805D04FF40D71DFF87003FEF7A4FA14
:104D0000DFF8740A006850F08050DFF86C1A086011
:104D1000DFF8640A006810F0805000900098DFF817
:104D2000500B006850F48070DFF8441B0860FEF7F9
:104D300086FB0500DFF8380B0068C00506D4FEF7D7
:104D40007EFB401B6528F5D3032087E1C848006837
:104D500030F48070C6490860C548006830F480604F
:104D6000C3490860FEF76BFB05005FF48000B0FAF2
:104D700080F0BF4800685FF48001B1FA81F111F062
:104D80001F010200CA40D00708D5FEF758FB401BA0
:104D900041F289318842E8D303205FE1A06801280D
:104DA00006D1B348006850F48070B14908602BE028
:104DB000A06800280CD1AE48006830F48070AC497F
:104DC0000860AB48006830F48060A94908601BE0C7
:104DD000A06805280CD1A648006850F48060A4495A
:104DE0000860A348006850F48070A14908600BE097
:104DF0009F48006830F480709D4908609C480068B6
:104E000030F480609A490860A06800281BD0FEF743
:104E100016FB05005FF48000B0FA80F0944800684B
:104E20005FF48001B1FA81F111F01F010200CA4064
:104E3000D00724D4FEF703FB401B41F2893188429E
:104E4000E8D303200AE1FEF7FAFA05005FF48000D8
:104E5000B0FA80F0864800685FF48001B1FA81F111
:104E600011F01F010200CA40D00708D5FEF7E7FA8B
:104E7000401B41F289318842E8D30320EEE0606AAA
:104E800000280AD0606A012807D0606A022804D08E
:104E900040F279217548FEF7D7F9606A002800F0E2
:104EA000DC807048006810F00C000C2800F0D38003
:104EB000606A022840F0A580A06A002808D0A06A95
:104EC000B0F5803F04D040F282216848FEF7BCF97B
:104ED000E06A002824D0E06AB0F5802F20D0E06A94
:104EE000B0F5002F1CD0E06AB0F5402F18D0E06A72
:104EF000B0F5801F14D0E06AB0F5A01F10D0E06AB2
:104F0000B0F5C01F0CD0E06AB0F5E01F08D0E06A31
:104F1000B0F5001F04D040F283215448FEF794F905
:104F2000206BB0F5800F0CD0206BB0F5000F08D0CF
:104F3000206BB0F5400F04D04FF421714B48FEF7C1
:104F400083F900208021B1FA81F1DFF8F42642F8DC
:104F50002100FEF774FA05004020B0FA80F050F00E
:104F60002000C0B24009C0B2012802D13C4800680C
:104F700001E03F4800684021B1FA81F111F01F01C2
:104F80000200CA40D00706D5FEF759FA401B652833
:104F9000E2D3032062E03348006830F47D00A16A68
:104FA0000843E16A0843216B08432E490860012049
:104FB0008021B1FA81F1DFF8882642F82100FEF75E
:104FC0003EFA05004020B0FA80F050F02000C0B258
:104FD0004009C0B2012802D12148006801E02448FC
:104FE00000684021B1FA81F111F01F010200CA40AE
:104FF000D00732D4FEF723FA401B6528E2D3032002
:105000002CE000208021B1FA81F1DFF8342642F84B
:105010002100FEF714FA05004020B0FA80F050F0AD
:105020002000C0B24009C0B2012802D10C4800687B
:1050300001E00F4800684021B1FA81F111F01F0131
:105040000200CA40D00708D5FEF7F9F9401B6528D1
:10505000E2D3032002E0012000E0002032BD000086
:105060000038024008380240043802406C550108FC
:105070003438024070B504000D000026002C05D124
:1050800040F2E221DFF87C08FEF7DEF8207810F02D
:105090000F0F05D140F2E321DFF86808FEF7D4F8DE
:1050A000002D07D0012D05D04FF43971DFF85408D9
:1050B000FEF7CAF8DFF85008006810F00100A842B7
:1050C00080F03881012D07D1DFF83C08006850F0EE
:1050D0000400DFF834180860DFF82C080068400886
:1050E00040002843DFF820180860DFF81C0800683B
:1050F00010F00100A84201D00120A0E22078800732
:105100002AD5A06800281DD0A06880281AD0A068E1
:10511000902817D0A068A02814D0A068B02811D07B
:10512000A068C0280ED0A068D0280BD0A068E028C6
:1051300008D0A068F02805D040F2FA21DFF8C407B3
:10514000FEF782F8DFF8C407006830F0F000A168CD
:105150000843DFF8B81708602078C00740F11E82C6
:10516000606800280ED0606801280BD060680228B3
:1051700008D06068032805D040F20131DFF88407C9
:10518000FEF762F8606802281DD14FF48040B0FA43
:1051900080F050F02000C0B24009C0B2012803D115
:1051A000DFF86C07006802E0DFF8680700684FF47A
:1051B0008041B1FA81F111F01F010200CA40D0070D
:1051C0005FD401203BE2606803281BD14020B0FA85
:1051D00080F050F02000C0B24009C0B2012803D1D5
:1051E000DFF82C07006802E0DFF82807006840219C
:1051F000B1FA81F111F01F010200CA40D00740D47A
:1052000001201CE2606801281DD15FF08040B0FAE7
:1052100080F050F02000C0B24009C0B2012803D194
:10522000DFF8EC06006802E0DFF8E80600685FF0EF
:105230008041B1FA81F111F01F010200CA40D0078C
:105240001FD40120FBE15FF48000B0FA80F050F041
:105250002000C0B24009C0B2012803D1DFF8B00677
:10526000006802E0DFF8AC0600685FF48001B1FA84
:1052700081F111F01F010200CA40D00701D40120C2
:10528000DDE1DFF888060068800880006168084377
:10529000DFF878160860FEF7D2F80600606802288A
:1052A00010D1DFF86806006810F00C00082800F044
:1052B0007581FEF7C4F8801B41F289318842F0D332
:1052C0000320BCE16068032810D1DFF840060068C5
:1052D00010F00C000C2800F06181FEF7B0F8801B84
:1052E00041F289318842F0D30320A8E160680128A7
:1052F00010D1DFF81806006810F00C00042800F048
:105300004D81FEF79CF8801B41F289318842F0D331
:10531000032094E1DFF8F405006810F00C0F00F0B2
:105320003D81FEF78CF8801B41F289318842F1D330
:10533000032084E1207880072AD5A06800281DD0AA
:10534000A06880281AD0A068902817D0A068A0284C
:1053500014D0A068B02811D0A068C0280ED0A068D2
:10536000D0280BD0A068E02808D0A068F02805D08D
:105370004FF45771DFF88C05FDF766FFDFF88C05F9
:10538000006830F0F000A1680843DFF8801508607D
:105390002078C00740F1E680606800280ED0606881
:1053A00001280BD06068022808D06068032805D067
:1053B00040F26331DFF84C05FDF746FF60680228D4
:1053C0001DD14FF48040B0FA80F050F02000C0B200
:1053D0004009C0B2012803D1DFF83405006802E0BB
:1053E000DFF8300500684FF48041B1FA81F111F027
:1053F0001F010200CA40D0075FD401201FE160688E
:1054000003281BD14020B0FA80F050F02000C0B239
:105410004009C0B2012803D1DFF8F404006802E0BB
:10542000DFF8F00400684021B1FA81F111F01F01AA
:105430000200CA40D00740D4012000E16068012882
:105440001DD15FF08040B0FA80F050F02000C0B273
:105450004009C0B2012803D1DFF8B404006802E0BB
:10546000DFF8B00400685FF08041B1FA81F111F01B
:105470001F010200CA40D0071FD40120DFE05FF403
:105480008000B0FA80F050F02000C0B24009C0B2F5
:10549000012803D1DFF87804006802E0DFF8740423
:1054A00000685FF48001B1FA81F111F01F01020080
:1054B000CA40D00701D40120C1E0DFF850040068E1
:1054C0008008800061680843DFF840140860FDF739
:1054D000B6FF0600606802280FD1DFF830040068CC
:1054E00010F00C0008283DD0FDF7A9FF801B41F209
:1054F00089318842F1D30320A1E0606803280FD1ED
:10550000DFF80804006810F00C000C282AD0FDF722
:1055100096FF801B41F289318842F1D303208EE04F
:10552000606801280FD1DFF8E403006810F00C0078
:10553000042817D0FDF783FF801B41F28931884290
:10554000F1D303207BE0DFF8C403006810F00C0FF8
:1055500008D0FDF774FF801B41F289318842F2D3F5
:1055600003206CE0012D07D1DFF89C03006850F0A8
:105570000400DFF894130860DFF88C03006840082B
:1055800040002843DFF880130860DFF87C030068E0
:1055900010F00100A84201D0012050E0207840071F
:1055A00022D5E068002815D0E068B0F5806F11D0F2
:1055B000E068B0F5A06F0DD0E068B0F5C06F09D01D
:1055C000E068B0F5E06F05D040F2C631DFF8340393
:1055D000FDF73AFEDFF83403006830F4E060E1687C
:1055E0000843DFF8281308602078000723D52069D6
:1055F000002815D02069B0F5806F11D02069B0F572
:10560000A06F0DD02069B0F5C06F09D02069B0F54A
:10561000E06F05D040F2CD31DFF8E802FDF714FE6F
:10562000DFF8E802006830F46050216950EAC100F8
:10563000DFF8D81208600120FDF7E9FE002070BDF8
:1056400000004742F0B5002100220023002400257D
:105650000020AE4E3668310011F00C06042E04D046
:10566000082E05D00C2E06D032E0AB4E300042E0C2
:10567000AA4E30003FE04FF47056B6FA86F6A84FB7
:1056800011F4701CE6463EFA06FE1EF80760320072
:105690004FF44076B6FA86F6A24F11F4400CE64677
:1056A0003EFA06FE1EF807603300984E3668F60391
:1056B00006D59A4E06FB02F6B6FBF3F6340005E07B
:1056C000954E06FB02F6B6FBF3F63400200012E01E
:1056D000954E366816F460465FF4E027B7FA87F710
:1056E000B4463CFA07FC654601266F1CBE404FF4E9
:1056F00000477E433000F0BD10B5FFF7A3FF83499C
:1057000009685FF07062B2FA82F2884B11F0F00122
:105710000C00D440E15C0200CA4085480260844825
:10572000006810BD10B5FFF7E7FF0100774800687B
:105730005FF46002B2FA82F27C4B10F4E060040085
:10574000D440E25C0800D04010BD10B5FFF7D4FF94
:1057500001006E4800685FF4E012B2FA82F2734B07
:1057600010F460500400D440E25C0800D04010BD4A
:1057700000000000800647422438024010B50400B3
:10578000002C04D140F2B1415E48FDF75DFD1F20C1
:1057900020605F480068400302D50520606008E093
:1057A0005B480068C00302D50120606001E0002072
:1057B000606057480068C00702D50120E06001E042
:1057C0000020E0605848006810F4F8505FF4780159
:1057D000B1FA81F10200CA4022614D480068C0055B
:1057E00002D50120A06101E00020A0614E480068C0
:1057F00010F07F40FF21B1FA81F10200CA40E2615E
:105800004948006810F46040206242480068400542
:1058100002D50520A06008E03E480068C00502D51A
:105820000120A06001E00020A0603A480068C007A5
:1058300002D50120606101E0002060613448006809
:10584000C00102D50220606201E0012060622F48A1
:10585000006810F48030A0622C48006810F47010CA
:10586000E0622A48006810F44000206310BD000088
:105870000070004070B582B0040000250026234867
:10588000006810F0F00F24D12A480068C00003D54A
:1058900008F004F9050014E02648006850F0805034
:1058A000244908602348006810F080500090009858
:1058B00008F0F4F805001F48006830F080501D49DA
:1058C0000860B5F5C05F04D1B4F5404F01D10120A7
:1058D0000600012E05D10C48006850F004000A496A
:1058E00008600948006840084000304306490860E5
:1058F0000548006810F00100B04201D0012000E02E
:10590000002076BD6C550108003C0240083802407A
:1059100000380240343802400024F40000366E01A2
:1059200064740108E8760108043802400C73010829
:10593000D00100202438024000B58BB06048614996
:1059400008607F205F498860FF205E49C8600020B2
:105950005C49486000205B49086100205949486162
:10596000002058498861574805F0C4FE04220021F0
:10597000544805F0E1FD4FF48070099001208DF846
:1059800020005FF0804007905FF0803005905FF06E
:105990007060069000208DF8030000208DF8000054
:1059A00000208DF8010000208DF8020000200190F9
:1059B000002200A9434805F05EFB4FF400700990F7
:1059C00001208DF820005FF0804007903E48059050
:1059D0005FF07060069000208DF8030000208DF8C5
:1059E000000000208DF8010000208DF8020000204A
:1059F0000190002200A9334805F03DFB0BB000BD2B
:105A000010B590B0040020682D49884240D12F483D
:105A1000006850F080502D4908602C48006810F054
:105A200080500090009808F053F80C20039000205C
:105A30000C90012005900120089003A8FEF7C6FDF8
:105A4000002801D0FDF7EAFB012001905FF48030CF
:105A5000029001A80BF046F9002801D0FDF7DEFB0B
:105A600001204FF40071B1FA81F1194A42F8210086
:105A700000220F21032005F062FA032005F080FACE
:105A800000220F21292005F05AFA292005F078FA82
:105A900010B010BD10B5040080210E48FEF7B3F918
:105AA00010BD10B5040080210A48FEF7ACF910BD06
:105AB00010B5040040210748FEF7A5F910BD00000D
:105AC00000280040F82C002000808080243802400C
:105AD0008006474200040240E0B53A483A4908606F
