:020000040800F2
:10000000D8040020DD1200080512000807120008BD
:10001000091200080B1200080D1200080000000071
:100020000000000000000000000000000F120008A7
:100030001112000800000000131200081512000839
:10004000F9120008FD120008191200080113000837
:1000500005130008091300080D1300081113000808
:1000600015130008191300081D13000821130008B8
:1000700025130008291300082D1300083113000868
:1000800035130008391300083D1300084113000818
:1000900045130008491300084D13000851130008C8
:1000A00055130008591300085D1300086113000878
:1000B00065130008691300086D1300087113000828
:1000C00075130008791300087D13000881130008D8
:1000D00085130008891300088D1300089113000888
:1000E00095130008991300089D130008A113000838
:1000F000A513000800000000A9130008AD130008B4
:100100000000000000000000B1130008B513000853
:10011000B9130008BD130008C11300080000000057
:10012000C51300082DE9F843044641F289382078C8
:10013000DFF86C66C00756D500F0A6FA05D000F0CF
:10014000A8FA0BD1B068C00308D500F0B1F90028B7
:1001500049D06068002846D101208EE1306820F443
:1001600080303060306820F48020306000F068FB20
:10017000054600F09DF928B100F062FB401B4045A8
:10018000F7D377E1306820F4803030606068012870
:1001900007D1306820F480203060306840F480302F
:1001A00006E0052808BFB07003D0306820F4802036
:1001B0003060606858B100F043FB054600F078F904
:1001C00088B900F03DFB401B4045F7D352E100F0F9
:1001D00037FB054600F06CF928B100F031FB401BFD
:1001E0004045F7D346E12078DFF8B875800715D58C
:1001F00000F045FA05D000F04CFA2AD1B068C003EF
:1002000027D400F059F91CBFE0680128A4D1706818
:10021000216920F4F85040EA012070602078C0067F
:1002200042D5B06810F00C0F56D13068C0F34020B2
:1002300010B1A06900288FD0206A716801F4604174
:10024000814223D200F074FA002885D100F01EF913
:1002500027E0E06868B10120386000F0F1FA054657
:1002600000F02AF9D3D100F0EBFA401B6528F7D350
:1002700000E1386000F0E4FA054600F01DF9CDD049
:1002800000F0DEFA401B6528F7D3F3E0716821F433
:100290006041084300F0FFF8206A00F049FA0028A6
:1002A000D3D10F2000F0B5FA2078000745D5616959
:1002B000DFF8F404002932D00121016000F0C0FA17
:1002C0000546706BC0F34000002836D100F0B8FA44
:1002D000401B6528F5D3CDE0A06988B101203862C4
:1002E00000F0AEFA05463068C0F3402028B900F0AF
:1002F000A7FA401B6528F6D3BCE000F0C7F8D3E7A7
:10030000386200F09DFA05463068C0F340200028AE
:10031000CAD000F095FA401B6528F5D3AAE0016029
:1003200000F08EFA0546706BC0F3400028B100F073
:1003300087FA401B6528F6D39CE0207840075DD5FE
:10034000706ADFF8689440F080507062706A00F064
:10035000805000900098D9F8000040F48070C9F8EF
:10036000000000F06DFA0546D9F80000C00505D47C
:1003700000F066FA401B6528F6D37BE0706B00F056
:100380007EF8706300F05CFA0546706BC0F34020A5
:1003900028B100F055FA401B4045F6D36AE0A0684A
:1003A000012808D008B9706B09E00528706B06D1E8
:1003B00040F480607063706B40F4807001E000F086
:1003C0005EF87063A06860B100F03AFA0546706BA1
:1003D000C0F3402090B900F033FA401B4045F6D3FB
:1003E00048E000F02DFA0546706BC0F3402028B1BC
:1003F00000F026FA401B4045F6D33BE0606A002837
:100400003AD0B16801F00C010C293FF4A5AE0228E6
:1004100024D100F049F805463068C0F3406028B1A7
:1004200000F00EFA401B6528F6D323E0B068A16AFD
:1004300020F47D000843E16A0843216B0843B06063
:10044000012000F032F805463068C0F3406098B9EA
:1004500000F0F6F9401B6528F6D30BE000F024F815
:1004600005463068C0F3406030B100F0E9F9401B48
:100470006528F6D3032000E00020BDE8F28320F4D5
:1004800080707063706B20F4806070477068216AC0
:1004900020F46040084370607068E1690002000A5F
:1004A00040EA0160706070470020386600F0C8B90B
:1004B0003068C0F3404070473068C0F34000002807
:1004C00070472DE9F843DFF8E852DFF8D4620446BC
:1004D0002868894600F00100484541F289384DD22C
:1004E00000F0BCF816D100F0D9F840F197806068B0
:1004F000022803D13168C1F340410AE0032803D147
:100500003168C1F3406104E00128316803D1C1F3CF
:10051000400121B980E0C1F3402100297CD000F0E6
:1005200096F807466068022808D100F0ADF875D04B
:1005300000F086F9C01B4045F7D368E0032808D1D6
:1005400000F0A7F86AD000F07BF9C01B4045F7D354
:100550005DE0012808D100F092F85FD000F070F95A
:10056000C01B4045F7D352E0B06810F00C0F55D0D7
:1005700000F066F9C01B4045F6D348E000F08EF865
:1005800047D56068022803D13168C1F340410AE0D1
:10059000032803D13168C1F3406104E001283168C8
:1005A00003D1C1F3400121B936E0C1F34021002954
:1005B00032D000F04CF807466068022808D100F0FD
:1005C00063F826D000F03CF9C01B4045F7D31EE08D
:1005D000032808D100F05DF81BD000F031F9C01BF2
:1005E0004045F7D313E0012808D100F048F810D0B7
:1005F00000F026F9C01B4045F7D308E0B06810F0C2
:100600000C0F06D000F01CF9C01B4045F6D30320A8
:100610001BE000F023F801D0012016E0207840070D
:1006200005D5B068E16820F4E0600843B060207848
:10063000000706D5B068216920F4605040EAC10087
:10064000B0600F2000F0E5F80020BDE8F283B1684B
:10065000890840EA8100B06000F0F2B8B9F1010FFA
:1006600003D1286840F0040028602868400849EA5F
:1006700040002860286800F0010048457047B068D5
:1006800000F00C0004287047B06800F00C00082847
:100690007047B06800F00C000C2870472078800785
:1006A00005D5B068A16820F0F0000843B06020785C
:1006B000C007704730B5404940484A68404B02F097
:1006C0000C04042C23D0082C02D00C2C02D015E0F2
:1006D000184630BD0FF20414C2F38345C2F38152B1
:1006E0002C5D0FF2F405525D4968C903B4FBF2F2C8
:1006F00002D503FB02F030BD504330BD0868400B0B
:1007000000F007000121401C01FA00F0C00330BDD9
:1007100080B5FFF7CFFF274B0FF2AC021B682949CA
:10072000C3F303139A5C20FA02F30B60086802BD5E
:10073000F8B5204F1E4E04463868002510F0F00F23
:100740001FD1F869C00002D500F08EF80EE0F869FC
:1007500040F08050F861F86900F0805000900098F7
:1007600000F082F8F96921F08051F961B0F5C05FBD
:1007700008BFB4F5404F04D1306840F004000125B3
:1007800030603068400845EA40003060306800F072
:100790000100A84201D00120F2BD0020F2BD0000FE
:1007A0000038024000004742800647420070004087
:1007B000003C024008380240043802400024F400A3
:1007C00000127A00C00000200000000001020304B3
:1007D00001020304060708090102030403040608D2
:1007E0000C1018203000000080B51D48016841F051
:1007F00004010160016841F002010160032000F082
:1008000048F80F2000F005F800F002F8002002BDC3
:10081000704710B50446FFF77BFF4FF47A71B0FBC9
:10082000F1F000F06AF8002221464FF0FF3000F0AE
:100830003DF8002010BD0B480168491C016070475D
:1008400008480068704711B581B0FFF7F9FF04460A
:10085000FFF7F6FF0199001B8842F9D313BD000092
:10086000003C0240D00000200248006800F4C05064
:1008700070470000007000400901002806D5294A91
:1008800000F00F00801800F8041C7047264A8154BD
:10089000704726490A684FF6FF031A4000F0070028
:1008A00042EA0020224A10430860704770B51F4B8F
:1008B0001B68C3F302230124C3F10705052D2EBFD6
:1008C0000F2504FA05F56D1E1E1D072E34BF0023EB
:1008D000DB1E2940994004FA03F3BDE870405B1E1B
:1008E0001A401143C8E7012100F01F029140114A4C
:1008F000FFE7400942F82010704710B5401EB0F1E4
:10090000807F01D3012010BD0B4C60600F214FF0A0
:10091000FF30FFF7B1FF0020A0600720206000201B
:1009200010BD000018ED00E000E400E00CED00E078
:100930000000FA0500E100E010E000E02DE9F847D2
:100940000026664A664BDFF89C814FF00F0930E0C5
:1009500005FA0EF73C4343F82C406FEA0A07146887
:1009600007EA040E4C68E40348BF4AEA0E0EC2F8D8
:1009700000E0546807EA040E4C68A40348BF4AEA42
:100980000E0EC2F804E0946807EA040E4C68E40214
:1009900048BF4AEA0E0EC2F808E0D2F80CE007EAB7
:1009A0000E0C4F68BF0248BF4AEA0C0CC2F80CC0DC
:1009B000761C0F6837FA06FC00F086804FF0010CB9
:1009C0000CFA06FC1CEA070AF2D04C68022C18BF8D
:1009D000122C10D1F40800EB840E06F00704DEF8A8
:1009E0002050A40009FA04F7BD430F6907FA04F484
:1009F0002C43CEF820404FEA460E032405680F79B9
:100A000004FA0EF4E44307F00307254007FA0EF753
:100A10003D4305604D68012D18BF022D03D0112DF7
:100A200018BF122D0FD18568CF68254007FA0EF741
:100A30003D438560456825EA0C074D68C5F3001500
:100A4000B5402F434760C76827408C6804FA0EFE04
:100A50004EEA0707C7604F68FF00A9D5D8F80040E5
:100A600044F00104C8F800404FEA960CD8F8004062
:100A700004F00104009406F00305009C53F82C4098
:100A80004FEA850E09FA0EF5AC43174DA84208BF90
:100A9000002518D0154DA84208BF012513D0144DCC
:100AA000A84208BF02250ED0124DA84208BF032558
:100AB00009D0114DA84208BF042504D00F4DA8420B
:100AC0000CBF0725082543E7BDE8F18702B90904F3
:100AD00081617047426951404161704700040140A3
:100AE000080001402038024000000240000402409B
:100AF00000080240000C02400010024000140240B6
:100B0000F0B587B0FFF770FE002000F0CDF80120AF
:100B100000F0CAF800F071F800242146084600F001
:100B200002F97F20584DE8604FF490702861AC6066
:100B30006C61AC61EC6155486860281D00F03CF9BF
:100B400010B100F0A9F8FEE70820009002940220FE
:100B50000190039404940594069400A9281D00F0C4
:100B600095F910B100F098F8FEE76868C16801F0E7
:100B7000800161F48141C1604DF659765A2705EB39
:100B8000840007FB0462416A281D00F039FA641CE6
:100B9000202CF4D3002400F02AF807FB04618842DB
:100BA00002D000F079F8FEE7641C202CF3D32878FB
:100BB000012807D0002000F0ADF84FF47A70FFF75D
:100BC00042FEF4E70821281D00F0AAF9002400F0F5
:100BD0000EF810B100F060F8FEE7641C202CF6D38C
:100BE000002000F097F86420FFF72DFEF8E705EBF2
:100BF0008400416A281D00F008BA00B593B001A82E
:100C0000142100F00DFA06A8342100F009FA0220A0
:100C100006900120099010200A9002200F900020D9
:100C200010904FF4002011904FF40000129006A88D
:100C3000FFF778FA10B100F02FF8FEE714480168CA
:100C400041F080510160006800F0805000900098F1
:100C50001048016821F4C05141F40061016041680D
:100C6000C906FCD40F20019001210320029000202E
:100C700003900490059001A8FFF723FC10B100F049
:100C80000BF8FEE713B000BD000000200028004074
:100C90002438024000700040012000F031B880B5D7
:100CA000FFF7FAFFFEE7704770B586B0044601A86B
:100CB000142100F0B5F93948394E016841F00201BC
:100CC000016001A9006800F00200009000980FF296
:100CD000DC0030F8145001950120029000200390B0
:100CE000032000F008F856F8240000222946FFF7F8
:100CF000EDFE06B070BD049056F82400FFF71EBE4E
:100D00000FF2A801264B31F8101053F820000122F1
:100D1000FFF7DCBE0FF29401214A31F8101052F8AF
:100D20002000FFF7D7BEF0B587B004460D4601A8F6
:100D3000142100F075F919481A4E01680FF2700776
:100D400041F001010160006800F00100009000988E
:100D500035B900F01DF8029003900220FFF7CBFF99
:100D6000012D13D100F014F80390022004900E48D6
:100D70000290FFF7C1FF0FF23C00245C00220F211C
:100D800060B2FFF793FD60B2FFF7ADFD07B0F0BDB5
:100D900037F81400019001A9002070471C38024068
:100DA000C4000020CC000020000011108000400092
:100DB000010000000600000038B5040012D0607F7A
:100DC00018B92077204600F02FF902206077CA205A
:100DD000216800F039F8FF250028206804D045621A
:100DE00004206077012032BD81681A4A114000F06A
:100DF00025F8626823691A4363691A4311438160C5
:100E00002168E068086120680169A26841EA02413E
:100E100001612068C16821F08001C1602068016C17
:100E200021F4802101642068016CA26911430164EE
:100E30002068456201206077002032BD8160206813
:100E4000816870472168CA2048625320216848623F
:100E5000204601E0BFFF8FFF38B504462068C16817
:100E6000490611D44FF0FF31C160FFF7E9FC054698
:100E70002068C068400607D4FFF7E2FC401BB0F5CD
:100E80007A7FF5D9032032BD002032BD30B5027F14
:100E9000012A01D1022030BD00F027F842F0800283
:100EA00000F00BF801680A6C42F004020A6400F0DA
:100EB00012F88A6000F009F830BD25EA02022264C7
:100EC0000268136C194311647047012141770021B6
:100ED000017700207047DFF810110A6842F4002201
:100EE0000A608A6842F400227047012202770222D7
:100EF00042770A684C68530004B14B604C688D68B7
:100F000014432C43CD682C430D692C434D698969EA
:100F10002C4321430468256C1A4342F47F427047F6
:100F2000027F012A01D102207047012202770222AA
:100F300042770268136C23EA010111646AE010B57C
:100F400004462068C168090507D58068000404D5F7
:100F5000204600F03BF800F031F82068016C4907AA
:100F60000AD5C068800407D5204600F030F800F0AC
:100F700042F861F40251C1602068016C49070AD54A
:100F8000C068400407D52046FFF78DFE00F033F817
:100F900061F48141C1602068016C49070BD5C068CC
:100FA000000408D5204600F013F820680F4A00F02E
:100FB00010F81143C1604FF400200EE02068C168B2
:100FC00001F0800161F40861C160704770477047AB
:100FD0007047C16801F08001704705490860012031
:100FE000607710BD00000000000401407F7FFFFF1C
:100FF0001404014081602068C16801F080017047DD
:101000000068503040F8212070470068503050F898
:1010100021007047012141770021017700207047AE
:10102000002200F039B8000000B5194891B00168FD
:1010300041F080510160006800F0805000900098FD
:1010400000F044F80C20049000200D90012009903D
:101050000020069004A8FFF765F808B1FFF71FFE0F
:10106000012001904FF40030029001A800F036F802
:1010700008B1FFF714FE07490120086000220F2184
:101080000220FFF713FC0220FFF72DFC11B000BD7A
:1010900024380240D806474200B500BF13009646E8
:1010A0009446103928BFA0E80C50FAD85FEA417C7A
:1010B00028BF0CC048BF40F8042BC90728BF20F840
:1010C000022B48BF00F8012B00BD00000249FFE7DA
:1010D000012008607047000020000E42F8B5044669
:1010E000207810F0030F61D0314D324E686A40F025
:1010F00080506862686A00F0805000900098306804
:1011000040F480703060FFF79BFB07463068C005F5
:1011100005D4FFF795FBC01B6528F7D331E0686B5A
:10112000616800F4403001F44031884202D02178F7
:10113000C90707D4A16801F4403188420BD0207858
:10114000800708D5686B1C4901220A6020F44030F2
:1011500000220A6068636068B0F5803F1CBFA06829
:10116000B0F5803F0FD1FFF76BFB0746686BC0F30C
:10117000402040B9FFF764FBC01B41F2893188422F
:10118000F4D30320F2BD606800F44031B1F5403F74
:1011900006D1296821F0C04100F0C0400843286012
:1011A000686B616801F44031084368630020F2BD58
:1011B0000038024000700040DC0647420D480E4AED
:1011C000016841F4807101608168114081600B4ABF
:1011D000016811400160016821F48021016081688B
:1011E00021F47D0181600021C1604FF0006004495D
:1011F00008607047003802400CC0FF88FEFFFEEE1A
:1012000008ED00E07047FEE7FEE7FEE7FEE7704707
:1012100070477047FFF70FBB80B50348FFF78FFE9D
:1012200002490120087001BD0400002000000020D8
:1012300010B450F8041B79B10268436812180830E2
:10124000DC0744BFA9F10104E31852F8044B43F84A
:10125000044B091FF9D1ECE710BC704710B50749E2
:1012600079441831064C7C44163404E00A68081DA1
:10127000511888470146A142F8D110BD080000006E
:1012800018000000ADFFFFFFD40000003C0100008B
:10129000000000200000000000F00BF8002801D042
:1012A000FFF7DCFF0020C046C046FFF729FC00F036
:1012B00002F80120704700F001B8000007463846E8
:1012C00000F002F8FBE7000080B5C046C046024AC5
:1012D00011001820ABBEFBE7260002000148804742
:1012E00001480047BD110008ED120008C046C04685
:1012F000C046C046FFF7D0FFFFF7FEBFFFF7FEBFB7
:10130000FFF7FEBFFFF7FEBFFFF7FEBFFFF7FEBF11
:10131000FFF7FEBFFFF7FEBFFFF7FEBFFFF7FEBF01
:10132000FFF7FEBFFFF7FEBFFFF7FEBFFFF7FEBFF1
:10133000FFF7FEBFFFF7FEBFFFF7FEBFFFF7FEBFE1
:10134000FFF7FEBFFFF7FEBFFFF7FEBFFFF7FEBFD1
:10135000FFF7FEBFFFF7FEBFFFF7FEBFFFF7FEBFC1
:10136000FFF7FEBFFFF7FEBFFFF7FEBFFFF7FEBFB1
:10137000FFF7FEBFFFF7FEBFFFF7FEBFFFF7FEBFA1
:10138000FFF7FEBFFFF7FEBFFFF7FEBFFFF7FEBF91
:10139000FFF7FEBFFFF7FEBFFFF7FEBFFFF7FEBF81
:1013A000FFF7FEBFFFF7FEBFFFF7FEBFFFF7FEBF71
:1013B000FFF7FEBFFFF7FEBFFFF7FEBFFFF7FEBF61
:1013C000FFF7FEBFFFF7FEBF0000000000000000B7
:1013D000000000000000000000000000000000000D
:1013E00000000000000000000000000000000000FD
:1013F00001000000020000000300000004000000E3
:1014000005000000060000000700000008000000C2
:10141000090000000A0000000B0000000C000000A2
:101420000D0000000E0000000F0000001000000082
:101430001100000012000000130000001400000062
:101440001500000016000000170000001800000042
:10145000190000001A0000001B0000001C00000022
:101460001D0000001E0000001F000000030406080D
:101470000C101820300000000000000000000000E8
:1014800001020304060708090048E80100040240BD
:0C149000000402400000024000000000C8
:04000005080012EDF0
:00000001FF
