:020000040800F2
:1000000038040020CD0F00086D0F00086F0F0008A6
:10001000710F0008730F0008750F00080000000042
:10002000000000000000000000000000770F000842
:10003000790F0008000000007B0F00087D0F00080A
:10004000E90F0008ED0F0008F10F0008F50F000898
:10005000F90F0008FD0F0008810F000801100008CB
:1000600005100008091000080D1000081110000804
:1000700015100008191000081D10000821100008B4
:1000800025100008291000082D1000083110000864
:1000900035100008391000083D1000084110000814
:1000A00045100008491000084D10000851100008C4
:1000B00055100008591000085D1000086110000874
:1000C00065100008691000086D1000087110000824
:1000D00075100008791000087D10000881100008D4
:1000E00085100008891000088D1000089110000884
:1000F0009510000800000000991000089D100008ED
:100100000000000000000000A1100008A510000879
:10011000A9100008AD100008B11000080000000090
:10012000B51000082DE9F843044641F289382078DB
:10013000DFF8B466C00756D500F0A6FA05D000F087
:10014000A8FA0BD1B068C00308D500F0B1F90028B7
:1001500049D06068002846D101208EE1306820F443
:1001600080303060306820F48020306000F08EFBFA
:10017000054600F09DF928B100F088FB401B404582
:10018000F7D377E1306820F4803030606068012870
:1001900007D1306820F480203060306840F480302F
:1001A00006E0052808BFB07003D0306820F4802036
:1001B0003060606858B100F069FB054600F078F9DE
:1001C00088B900F063FB401B4045F7D352E100F0D3
:1001D0005DFB054600F06CF928B100F057FB401BB1
:1001E0004045F7D346E12078DFF80076800715D543
:1001F00000F045FA05D000F04CFA2AD1B068C003EF
:1002000027D400F059F91CBFE0680128A4D1706818
:10021000216920F4F85040EA012070602078C0067F
:1002200042D5B06810F00C0F56D13068C0F34020B2
:1002300010B1A06900288FD0206A716801F4604174
:10024000814223D200F098FA002885D100F01EF9EF
:1002500027E0E06868B10120386000F017FB054630
:1002600000F02AF9D3D100F011FB401B6528F7D329
:1002700000E1386000F00AFB054600F01DF9CDD022
:1002800000F004FB401B6528F7D3F3E0716821F40C
:100290006041084300F0FFF8206A00F06DFA002882
:1002A000D3D10F2000F0DBFA2078000745D5616933
:1002B000DFF83C05002932D00121016000F0E6FAA8
:1002C0000546706BC0F34000002836D100F0DEFA1E
:1002D000401B6528F5D3CDE0A06988B101203862C4
:1002E00000F0D4FA05463068C0F3402028B900F089
:1002F000CDFA401B6528F6D3BCE000F0C7F8D3E781
:10030000386200F0C3FA05463068C0F34020002888
:10031000CAD000F0BBFA401B6528F5D3AAE0016003
:1003200000F0B4FA0546706BC0F3400028B100F04D
:10033000ADFA401B6528F6D39CE0207840075DD5D8
:10034000706ADFF8B09440F080507062706A00F01C
:10035000805000900098D9F8000040F48070C9F8EF
:10036000000000F093FA0546D9F80000C00505D456
:1003700000F08CFA401B6528F6D37BE0706B00F030
:100380007EF8706300F082FA0546706BC0F340207F
:1003900028B100F07BFA401B4045F6D36AE0A06824
:1003A000012808D008B9706B09E00528706B06D1E8
:1003B00040F480607063706B40F4807001E000F086
:1003C0005EF87063A06860B100F060FA0546706B7B
:1003D000C0F3402090B900F059FA401B4045F6D3D5
:1003E00048E000F053FA0546706BC0F3402028B196
:1003F00000F04CFA401B4045F6D33BE0606A002811
:100400003AD0B16801F00C010C293FF4A5AE0228E6
:1004100024D100F049F805463068C0F3406028B1A7
:1004200000F034FA401B6528F6D323E0B068A16AD7
:1004300020F47D000843E16A0843216B0843B06063
:10044000012000F032F805463068C0F3406098B9EA
:1004500000F01CFA401B6528F6D30BE000F024F8EE
:1004600005463068C0F3406030B100F00FFA401B21
:100470006528F6D3032000E00020BDE8F28320F4D5
:1004800080707063706B20F4806070477068216AC0
:1004900020F46040084370607068E1690002000A5F
:1004A00040EA0160706070470020386600F0EEB9E5
:1004B0003068C0F3404070473068C0F34000002807
:1004C00070472DE9F843DFF83053DFF81C6304462A
:1004D0002868894600F00100484541F289384DD22C
:1004E00000F0BCF816D100F0D9F840F197806068B0
:1004F000022803D13168C1F340410AE0032803D147
:100500003168C1F3406104E00128316803D1C1F3CF
:10051000400121B980E0C1F3402100297CD000F0E6
:1005200096F807466068022808D100F0ADF875D04B
:1005300000F0ACF9C01B4045F7D368E0032808D1B0
:1005400000F0A7F86AD000F0A1F9C01B4045F7D32E
:100550005DE0012808D100F092F85FD000F096F934
:10056000C01B4045F7D352E0B06810F00C0F55D0D7
:1005700000F08CF9C01B4045F6D348E000F08EF83F
:1005800047D56068022803D13168C1F340410AE0D1
:10059000032803D13168C1F3406104E001283168C8
:1005A00003D1C1F3400121B936E0C1F34021002954
:1005B00032D000F04CF807466068022808D100F0FD
:1005C00063F826D000F062F9C01B4045F7D31EE067
:1005D000032808D100F05DF81BD000F057F9C01BCC
:1005E0004045F7D313E0012808D100F048F810D0B7
:1005F00000F04CF9C01B4045F7D308E0B06810F09C
:100600000C0F06D000F042F9C01B4045F6D3032082
:100610001BE000F023F801D0012016E0207840070D
:1006200005D5B068E16820F4E0600843B060207848
:10063000000706D5B068216920F4605040EAC10087
:10064000B0600F2000F00BF90020BDE8F283B16824
:10065000890840EA8100B06000F018B9B9F1010FD3
:1006600003D1286840F0040028602868400849EA5F
:1006700040002860286800F0010048457047B068D5
:1006800000F00C0004287047B06800F00C00082847
:100690007047B06800F00C000C2870472078800785
:1006A00005D5B068A16820F0F0000843B06020785C
:1006B000C007704770B5514E86B0706940F00100B8
:1006C00070610C46706900F00100009015460098BA
:1006D0004FF48070019001A9022002900320049041
:1006E000002003900590464800F0E4F8306820F0C0
:1006F000EE4020432843306006B070BD30B541491C
:1007000041484A68414B02F00C04042C23D0082CC9
:1007100002D00C2C02D015E0184630BD0FF20814A0
:10072000C2F38345C2F381522C5D0FF2F805525D8E
:100730004968C903B4FBF2F202D503FB02F030BDF5
:10074000504330BD0868400B00F007000121401CF9
:1007500001FA00F0C00330BD80B5FFF7CFFF274B93
:100760000FF2B0021B682A49C3F303139A5C20FA04
:1007700002F30B60086802BDF8B5204F1E4E044618
:100780003868002510F0F00F1FD1F869C00002D5BD
:1007900000F07EF90EE0F86940F08050F861F869E9
:1007A00000F080500090009800F072F9F96921F093
:1007B0008051F961B0F5C05F08BFB4F5404F04D176
:1007C000306840F00400012530603068400845EA98
:1007D00040003060306800F00100A84201D00120E4
:1007E000F2BD0020F2BD0000003802400000474288
:1007F0008006474200700040003C0240083802403A
:1008000000000240043802400024F40000127A0084
:100810001C00002000000000010203040102030488
:100820000607080901020304030406080C10182037
:100830003000000080B51D48016841F004010160EE
:10084000016841F002010160032000F036F90F2039
:1008500000F005F800F002F8002002BD704710B566
:100860000446FFF779FF4FF47A71B0FBF1F000F026
:1008700058F9002221464FF0FF3000F02BF90020FC
:1008800010BD0B480168491C0160704708480068AA
:10089000704711B581B0FFF7F9FF0446FFF7F6FF87
:1008A0000199001B8842F9D313BD0000003C0240AF
:1008B0002C0000202DE9F84700266B4A6B4BDFF82F
:1008C000B0814FF00F0930E005FA0EF73C4343F8D2
:1008D0002C406FEA0A07146807EA040E4C68E40328
:1008E00048BF4AEA0E0EC2F800E0546807EA040E58
:1008F0004C68A40348BF4AEA0E0EC2F804E09468AC
:1009000007EA040E4C68E40248BF4AEA0E0EC2F839
:1009100008E0D2F80CE007EA0E0C4F68BF0248BFAF
:100920004AEA0C0CC2F80CC0761C0F6837FA06FCB9
:1009300000F086804FF0010C0CFA06FC1CEA070A56
:10094000F2D04C68022C18BF122C10D1F40800EB26
:10095000840E06F00704DEF82050A40009FA04F71C
:10096000BD430F6907FA04F42C43CEF820404FEA48
:10097000460E032405680F7904FA0EF4E44307F0E9
:100980000307254007FA0EF73D4305604D68012D2A
:1009900018BF022D03D0112D18BF122D0FD185685D
:1009A000CF68254007FA0EF73D438560456825EA84
:1009B0000C074D68C5F30015B5402F434760C76865
:1009C00027408C6804FA0EFE4EEA0707C7604F689E
:1009D000FF00A9D5D8F8004044F00104C8F8004051
:1009E0004FEA960CD8F8004004F00104009406F099
:1009F0000305009C53F82C404FEA850E09FA0EF5CA
:100A0000AC431C4DA84208BF002518D01A4DA8427F
:100A100008BF012513D0194DA84208BF02250ED0EA
:100A2000174DA84208BF032509D0164DA84208BF9C
:100A3000042504D0144DA8420CBF0725082543E720
:100A4000BDE8F18702B909048161704742695140EC
:100A5000416170470D4A1368034200D1704780B569
:100A6000106000F0A0F801BD000401400800014042
:100A7000203802400000024000040240000802400A
:100A8000000C024000100240001402401404014017
:100A90000248006800F4C050704700000070004039
:100AA0000901002806D5294A00F00F00801800F837
:100AB000041C7047264A8154704726490A684FF63D
:100AC000FF031A4000F0070042EA0020224A1043C8
:100AD0000860704770B51F4B1B68C3F302230124E5
:100AE000C3F10705052D2EBF0F2504FA05F56D1E70
:100AF0001E1D072E34BF0023DB1E2940994004FA37
:100B000003F3BDE870405B1E1A401143C8E70121A2
:100B100000F01F029140114AFFE7400942F82010FF
:100B2000704710B5401EB0F1807F01D3012010BD89
:100B30000B4C60600F214FF0FF30FFF7B1FF00203A
:100B4000A06007202060002010BD000018ED00E02C
:100B500000E400E00CED00E00000FA0500E100E038
:100B600010E000E010B5FFF765FE002000F000F98E
:100B7000012000F0FDF80121002000F038F900F01C
:100B8000A6F800224FF080710020FFF793FD724C11
:100B9000207808B100F00CF8002000F01FF9642064
:100BA000FFF777FEF4E7012804BF6B490870704730
:100BB00010B56A4892B00168C9034FF4000432D4FA
:100BC00000F071F800F06BF8012000900190012115
:100BD00000A8FFF776FC10B100F0C6F8FEE7012090
:100BE00005901194052006904FF480300F9002205C
:100BF0000E904FF4801000F05AF810B100F0B4F8E5
:100C0000FEE700F058F810B100F0AEF8FEE7022061
:100C10000590002008900E9000F04AF8002839D086
:100C200000F0A2F8FEE70068C00333D500F03BF8FF
:100C300000F035F80120009001210220019000A869
:100C4000FFF73FFC10B100F08FF8FEE7022005909F
:100C50001194012008901020099002200E9000208D
:100C60000F904FF4002000F022F810B100F07CF853
:100C7000FEE700F020F810B100F076F8FEE7012062
:100C80000590002006900E9000F012F810B100F0D0
:100C90006BF8FEE730490020087012B010BD05A8BF
:100CA000342100F0EDB800A8142100F0E9B810904C
:100CB00005A8FFF737BA0F2000900121032001900B
:100CC000002002900390049000A8FFF7FABB00B543
:100CD00093B001A8FFF7E8FF06A8FFF7E1FF0220A5
:100CE00006900120099010200A9002200F90002009
:100CF00010904FF4002011904FF40000129006A8BD
:100D0000FFF710FA10B100F02FF8FEE71448016861
:100D100041F080510160006800F080500090009820
:100D20001048016821F4C05141F40061016041683C
:100D3000C906FCD40F20019001210320029000205D
:100D400003900490059001A8FFF7BBFB10B100F0E1
:100D50000BF8FEE713B000BD300000200838024059
:100D60002438024000700040012000F02DB800003F
:100D700070B586B0044601A8142100F081F8394806
:100D8000394E016841F00201016001A9006800F0DC
:100D90000200009000980FF2DC0030F8145001952A
:100DA0000120029000200390032000F008F856F87C
:100DB000240000222946FFF745FE06B070BD0490CE
:100DC00056F82400FFF776BD0FF2A801264B31F844
:100DD000101053F820000122FFF734BE0FF29401E7
:100DE000214A31F8101052F82000FFF72FBEF0B55D
:100DF00087B004460D4601A8142100F041F81948B7
:100E00001A4E01680FF2700741F00101016000689D
:100E100000F001000090009835B900F01DF8029034
:100E200003900220FFF7CBFF012D13D100F014F83F
:100E30000390022004900E480290FFF7C1FF0FF2CA
:100E40003C00245C00220F2160B2FFF743FE60B239
:100E5000FFF75DFE07B0F0BD37F81400019001A95F
:100E6000002070471C38024020000020280000208D
:100E7000000011108000400001000000060000008A
:100E8000002200F001B8000000B500BF1300964634
:100E90009446103928BFA0E80C50FAD85FEA417C8C
:100EA00028BF0CC048BF40F8042BC90728BF20F852
:100EB000022B48BF00F8012B00BD00000D480E4A70
:100EC000016841F4807101608168114081600B4AC2
:100ED000016811400160016821F48021016081688E
:100EE00021F47D0181600021C1604FF00060044960
:100EF00008607047003802400CC0FF88FEFFFEEE1D
:100F000008ED00E010B450F8041B79B102684368A2
:100F100012180830DC0744BFA9F10104E31852F8A5
:100F2000044B43F8044B091FF9D1ECE710BC7047A0
:100F300010B5074979441831064C7C44163404E056
:100F40000A68081D511888470146A142F8D110BD12
:100F50000800000018000000ADFFFFFF3400000093
:100F60005801000000000020000000007047FEE76C
:100F7000FEE7FEE7FEE7704770477047FFF781BC6A
:100F80000120FFF767BD000000F00BF8002801D03A
:100F9000FFF7CEFF0020C046C046FFF7E3FD00F09C
:100FA00002F80120704700F001B8000007463846FB
:100FB00000F002F8FBE7000080B5C046C046024AD8
:100FC00011001820ABBEFBE7260002000148804755
:100FD00001480047BD0E0008DD0F0008C046C046AE
:100FE000C046C046FFF7D0FFFFF7FEBFFFF7FEBFCA
:100FF000FFF7FEBFFFF7FEBFFFF7FEBFFFF7FEBF25
:10100000FFF7FEBFFFF7FEBFFFF7FEBFFFF7FEBF14
:10101000FFF7FEBFFFF7FEBFFFF7FEBFFFF7FEBF04
:10102000FFF7FEBFFFF7FEBFFFF7FEBFFFF7FEBFF4
:10103000FFF7FEBFFFF7FEBFFFF7FEBFFFF7FEBFE4
:10104000FFF7FEBFFFF7FEBFFFF7FEBFFFF7FEBFD4
:10105000FFF7FEBFFFF7FEBFFFF7FEBFFFF7FEBFC4
:10106000FFF7FEBFFFF7FEBFFFF7FEBFFFF7FEBFB4
:10107000FFF7FEBFFFF7FEBFFFF7FEBFFFF7FEBFA4
:10108000FFF7FEBFFFF7FEBFFFF7FEBFFFF7FEBF94
:10109000FFF7FEBFFFF7FEBFFFF7FEBFFFF7FEBF84
:1010A000FFF7FEBFFFF7FEBFFFF7FEBFFFF7FEBF74
:1010B000FFF7FEBFFFF7FEBF030406080C10182061
:1010C00030000000000000000000000001020304E6
:1010D000060708090048E801000402400004024035
:0C10E000000002400000000000000000C2
:0400000508000FDD03
:00000001FF
